{"project/contracts/PrivateMail.sol":{"PrivateMail":{"abi":[{"inputs":[{"internalType":"address","name":"owner","type":"address"}],"name":"AlreadyRegistered","type":"error"},{"inputs":[],"name":"EmptyCiphertext","type":"error"},{"inputs":[],"name":"EmptyPublicKey","type":"error"},{"inputs":[{"internalType":"uint256","name":"messageId","type":"uint256"}],"name":"InvalidMessageId","type":"error"},{"inputs":[{"internalType":"uint256","name":"pageId","type":"uint256"}],"name":"InvalidPageId","type":"error"},{"inputs":[],"name":"InvalidUsername","type":"error"},{"inputs":[],"name":"NotRegistered","type":"error"},{"inputs":[{"internalType":"address","name":"recipient","type":"address"}],"name":"RecipientNotRegistered","type":"error"},{"inputs":[{"internalType":"address","name":"owner","type":"address"}],"name":"UsernameAlreadySet","type":"error"},{"inputs":[{"internalType":"string","name":"username","type":"string"}],"name":"UsernameTaken","type":"error"},{"inputs":[],"name":"ZeroAddress","type":"error"},{"anonymous":false,"inputs":[{"indexed":true,"internalType":"uint256","name":"messageId","type":"uint256"},{"indexed":true,"internalType":"address","name":"sender","type":"address"},{"indexed":true,"internalType":"address","name":"recipient","type":"address"},{"indexed":false,"internalType":"uint256","name":"timestamp","type":"uint256"},{"indexed":false,"internalType":"bytes32","name":"contentHash","type":"bytes32"}],"name":"MessageSent","type":"event"},{"anonymous":false,"inputs":[{"indexed":true,"internalType":"address","name":"owner","type":"address"},{"indexed":false,"internalType":"bytes","name":"pubKey","type":"bytes"}],"name":"PublicKeyRegistered","type":"event"},{"anonymous":false,"inputs":[{"indexed":true,"internalType":"address","name":"owner","type":"address"},{"indexed":false,"internalType":"string","name":"username","type":"string"}],"name":"UsernameRegistered","type":"event"},{"inputs":[],"name":"CIPHER_TEXT_INLINE_MAX","outputs":[{"internalType":"uint256","name":"","type":"uint256"}],"stateMutability":"view","type":"function"},{"inputs":[],"name":"MESSAGES_PER_PAGE","outputs":[{"internalType":"uint256","name":"","type":"uint256"}],"stateMutability":"view","type":"function"},{"inputs":[],"name":"PREV_PAGE_NONE","outputs":[{"internalType":"uint256","name":"","type":"uint256"}],"stateMutability":"view","type":"function"},{"inputs":[{"internalType":"address","name":"","type":"address"}],"name":"addressToUsername","outputs":[{"internalType":"bytes32","name":"","type":"bytes32"}],"stateMutability":"view","type":"function"},{"inputs":[{"internalType":"address","name":"","type":"address"}],"name":"encryptionPublicKeys","outputs":[{"internalType":"bytes","name":"","type":"bytes"}],"stateMutability":"view","type":"function"},{"inputs":[{"internalType":"string","name":"username","type":"string"}],"name":"getAddressForUsername","outputs":[{"internalType":"address","name":"","type":"address"}],"stateMutability":"view","type":"function"},{"inputs":[{"internalType":"uint256","name":"refId","type":"uint256"}],"name":"getLargeCiphertext","outputs":[{"internalType":"bytes","name":"","type":"bytes"}],"stateMutability":"view","type":"function"},{"inputs":[{"internalType":"uint256","name":"messageId","type":"uint256"}],"name":"getMessage","outputs":[{"components":[{"internalType":"address","name":"sender","type":"address"},{"internalType":"address","name":"recipient","type":"address"},{"internalType":"bytes","name":"ciphertext","type":"bytes"},{"internalType":"uint256","name":"ciphertextRef","type":"uint256"},{"internalType":"uint256","name":"timestamp","type":"uint256"},{"internalType":"bytes32","name":"contentHash","type":"bytes32"}],"internalType":"struct PrivateMail.Message","name":"","type":"tuple"}],"stateMutability":"view","type":"function"},{"inputs":[{"internalType":"uint256","name":"pageId","type":"uint256"}],"name":"getPage","outputs":[{"internalType":"uint256[10]","name":"messageIds","type":"uint256[10]"},{"internalType":"uint8","name":"count","type":"uint8"},{"internalType":"uint256","name":"prevPageIdForRecipient","type":"uint256"}],"stateMutability":"view","type":"function"},{"inputs":[{"internalType":"uint256","name":"pageId","type":"uint256"}],"name":"getPageWithMessages","outputs":[{"internalType":"uint8","name":"count","type":"uint8"},{"internalType":"uint256","name":"prevPageIdForRecipient","type":"uint256"},{"components":[{"internalType":"address","name":"sender","type":"address"},{"internalType":"address","name":"recipient","type":"address"},{"internalType":"bytes","name":"ciphertext","type":"bytes"},{"internalType":"uint256","name":"ciphertextRef","type":"uint256"},{"internalType":"uint256","name":"timestamp","type":"uint256"},{"internalType":"bytes32","name":"contentHash","type":"bytes32"}],"internalType":"struct PrivateMail.Message[10]","name":"pageMessages","type":"tuple[10]"}],"stateMutability":"view","type":"function"},{"inputs":[{"internalType":"address","name":"owner","type":"address"}],"name":"getPublicKey","outputs":[{"internalType":"bytes","name":"","type":"bytes"}],"stateMutability":"view","type":"function"},{"inputs":[{"internalType":"address","name":"recipient","type":"address"}],"name":"getRecipientHeadPageId","outputs":[{"internalType":"uint256","name":"","type":"uint256"}],"stateMutability":"view","type":"function"},{"inputs":[{"internalType":"address","name":"owner","type":"address"}],"name":"getUsernameHash","outputs":[{"internalType":"bytes32","name":"","type":"bytes32"}],"stateMutability":"view","type":"function"},{"inputs":[{"internalType":"address","name":"","type":"address"}],"name":"hasRegisteredKey","outputs":[{"internalType":"bool","name":"","type":"bool"}],"stateMutability":"view","type":"function"},{"inputs":[{"internalType":"address","name":"owner","type":"address"}],"name":"isRegistered","outputs":[{"internalType":"bool","name":"","type":"bool"}],"stateMutability":"view","type":"function"},{"inputs":[{"internalType":"uint256","name":"","type":"uint256"}],"name":"largeCiphertexts","outputs":[{"internalType":"bytes","name":"","type":"bytes"}],"stateMutability":"view","type":"function"},{"inputs":[{"internalType":"uint256","name":"","type":"uint256"}],"name":"messages","outputs":[{"internalType":"address","name":"sender","type":"address"},{"internalType":"address","name":"recipient","type":"address"},{"internalType":"bytes","name":"ciphertext","type":"bytes"},{"internalType":"uint256","name":"ciphertextRef","type":"uint256"},{"internalType":"uint256","name":"timestamp","type":"uint256"},{"internalType":"bytes32","name":"contentHash","type":"bytes32"}],"stateMutability":"view","type":"function"},{"inputs":[],"name":"nextCiphertextRefId","outputs":[{"internalType":"uint256","name":"","type":"uint256"}],"stateMutability":"view","type":"function"},{"inputs":[],"name":"nextMessageId","outputs":[{"internalType":"uint256","name":"","type":"uint256"}],"stateMutability":"view","type":"function"},{"inputs":[],"name":"nextPageId","outputs":[{"internalType":"uint256","name":"","type":"uint256"}],"stateMutability":"view","type":"function"},{"inputs":[{"internalType":"uint256","name":"","type":"uint256"}],"name":"pages","outputs":[{"internalType":"uint8","name":"count","type":"uint8"},{"internalType":"uint256","name":"prevPageIdForRecipient","type":"uint256"}],"stateMutability":"view","type":"function"},{"inputs":[{"internalType":"address","name":"","type":"address"}],"name":"recipientHeadPageId","outputs":[{"internalType":"uint256","name":"","type":"uint256"}],"stateMutability":"view","type":"function"},{"inputs":[{"internalType":"bytes","name":"pubKey","type":"bytes"}],"name":"registerPublicKey","outputs":[],"stateMutability":"nonpayable","type":"function"},{"inputs":[{"internalType":"string","name":"username","type":"string"}],"name":"registerUsername","outputs":[],"stateMutability":"nonpayable","type":"function"},{"inputs":[{"internalType":"address","name":"recipient","type":"address"},{"internalType":"bytes","name":"ciphertext","type":"bytes"},{"internalType":"bytes32","name":"contentHash","type":"bytes32"}],"name":"sendMessage","outputs":[{"internalType":"uint256","name":"messageId","type":"uint256"}],"stateMutability":"nonpayable","type":"function"},{"inputs":[{"internalType":"address","name":"","type":"address"}],"name":"usernameOf","outputs":[{"internalType":"string","name":"","type":"string"}],"stateMutability":"view","type":"function"},{"inputs":[{"internalType":"bytes32","name":"","type":"bytes32"}],"name":"usernameToAddress","outputs":[{"internalType":"address","name":"","type":"address"}],"stateMutability":"view","type":"function"}],"evm":{"bytecode":{"linkReferences":{},"object":"60806040526001805560016002553480156017575f5ffd5b506118c8806100255f395ff3fe608060405234801561000f575f5ffd5b50600436106101a1575f3560e01c8063778f10a3116100f3578063a0f0438a11610093578063c3c5a5471161006e578063c3c5a54714610426578063e07a0baa14610451578063ea040c6014610470578063eefbf17e14610498575f5ffd5b8063a0f0438a146103dc578063a1fb277f146103fe578063aba5627114610407575f5ffd5b8063857cdbb8116100ce578063857cdbb81461039857806386f79edb146103ab5780638803d054146103cb5780638a602ce8146103d3575f5ffd5b8063778f10a31461036b5780637898acef146103725780638562359414610385575f5ffd5b80632fdf15d51161015e578063522cf1e011610139578063522cf1e0146102b6578063570b0257146102de5780635c3e9cc2146102f15780636e6d5d6414610339575f5ffd5b80632fdf15d51461026657806336a941341461028e5780633f4e7d25146102a3575f5ffd5b806303aa6fa9146101a5578063095a0535146101c15780630d80fefd146101ec5780630fb8fa1e14610211578063137a3c96146102315780632c4ac77014610253575b5f5ffd5b6101ae60025481565b6040519081526020015b60405180910390f35b6101d46101cf366004611344565b6104a0565b6040516001600160a01b0390911681526020016101b8565b6101ff6101fa366004611383565b6104d0565b6040516101b8969594939291906113c8565b61022461021f366004611383565b610597565b6040516101b89190611411565b61024461023f366004611383565b61062e565b6040516101b89392919061142a565b6101ae610261366004611486565b6106cc565b6101d4610274366004611383565b60096020525f90815260409020546001600160a01b031681565b6102a161029c366004611344565b610a84565b005b6102246102b1366004611383565b610bb3565b6101ae6102c43660046114dc565b6001600160a01b03165f908152600a602052604090205490565b6102246102ec3660046114dc565b610c52565b6103206102ff366004611383565b60046020525f90815260409020600a810154600b9091015460ff9091169082565b6040805160ff90931683526020830191909152016101b8565b61035b6103473660046114dc565b60086020525f908152604090205460ff1681565b60405190151581526020016101b8565b6101ae5f81565b6102246103803660046114dc565b610c6a565b6102a1610393366004611344565b610c82565b6102246103a63660046114dc565b610d64565b6103be6103b9366004611383565b610d8a565b6040516101b89190611557565b6101ae600a81565b6101ae61010081565b6103ef6103ea366004611383565b610ea7565b6040516101b893929190611569565b6101ae60015481565b6101ae6104153660046114dc565b60066020525f908152604090205481565b61035b6104343660046114dc565b6001600160a01b03165f9081526008602052604090205460ff1690565b6101ae61045f3660046114dc565b600a6020525f908152604090205481565b6101ae61047e3660046114dc565b6001600160a01b03165f9081526006602052604090205490565b6101ae5f5481565b5f60095f6104ae8585611035565b815260208101919091526040015f20546001600160a01b031690505b92915050565b60036020525f90815260409020805460018201546002830180546001600160a01b03938416949290931692610504906115cb565b80601f0160208091040260200160405190810160405280929190818152602001828054610530906115cb565b801561057b5780601f106105525761010080835404028352916020019161057b565b820191905f5260205f20905b81548152906001019060200180831161055e57829003601f168201915b5050505050908060030154908060040154908060050154905086565b60056020525f9081526040902080546105af906115cb565b80601f01602080910402602001604051908101604052809291908181526020018280546105db906115cb565b80156106265780601f106105fd57610100808354040283529160200191610626565b820191905f5260205f20905b81548152906001019060200180831161060957829003601f168201915b505050505081565b61063661126f565b5f8083158061064757506001548410155b1561066d576040516320a5b2c960e01b8152600481018590526024015b60405180910390fd5b5f8481526004602052604090819020600a80820154600b83015484516101408101958690529394859460ff90931693919291859182845b8154815260200190600101908083116106a45750505050509250935093509350509193909250565b5f6001600160a01b0385166106f45760405163d92e233d60e01b815260040160405180910390fd5b6001600160a01b0385165f9081526008602052604090205460ff166107375760405163080dc24160e01b81526001600160a01b0386166004820152602401610664565b5f83900361075857604051631b7c19af60e31b815260040160405180910390fd5b5f8054908061076683611617565b9091555090505f6101008411610865576040518060c00160405280336001600160a01b03168152602001876001600160a01b0316815260200186868080601f0160208091040260200160405190810160405280939291908181526020018383808284375f92018290525093855250505060208083018290524260408085019190915260609093018790528582526003815290829020835181546001600160a01b03199081166001600160a01b039283161783559285015160018301805490941691161790915590820151600282019061083f908261168f565b50606082015160038201556080820151600482015560a090910151600590910155610945565b60028054905f61087483611617565b909155505f81815260056020526040902090915061089385878361174a565b506040805160c0810182523381526001600160a01b038881166020808401918252845180820186525f8082528587019182526060860188905242608087015260a086018a90528881526003909252949020835181549084166001600160a01b031991821617825591516001820180549190941692169190911790915591519091906002820190610923908261168f565b50606082015160038201556080820151600482015560a0909101516005909101555b6001600160a01b0386165f9081526006602052604090205480158061097d57505f818152600460205260409020600a9081015460ff16145b156109d857600180545f918261099283611617565b909155505f818152600460209081526040808320888155600a8101805460ff19166001179055600b018690556001600160a01b038c168352600690915290205550610a32565b5f818152600460205260409020600a808201548591839160ff16908110610a0157610a01611804565b0155600a8101805460ff16905f610a1783611818565b91906101000a81548160ff021916908360ff16021790555050505b60408051428152602081018690526001600160a01b03891691339186917fadf67e525d1556d0e0a61997ac1891dec92a21ba974328aa422695a91c27b1bf910160405180910390a45050949350505050565b335f9081526008602052604090205460ff16610ab35760405163aba4733960e01b815260040160405180910390fd5b335f908152600a602052604090205415610ae257604051636609e72d60e01b8152336004820152602401610664565b5f610aed8383611035565b5f818152600960205260409020549091506001600160a01b031615610b29578282604051632b4e256760e01b815260040161066492919061185e565b5f81815260096020908152604080832080546001600160a01b031916339081179091558352600a8252808320849055600b9091529020610b6a83858361174a565b50336001600160a01b03167f4afe13536e3149cddd8c9a8df1580cd5e909fd13c41e7dfead2e38d1141dad5d8484604051610ba692919061185e565b60405180910390a2505050565b5f818152600560205260409020805460609190610bcf906115cb565b80601f0160208091040260200160405190810160405280929190818152602001828054610bfb906115cb565b8015610c465780601f10610c1d57610100808354040283529160200191610c46565b820191905f5260205f20905b815481529060010190602001808311610c2957829003601f168201915b50505050509050919050565b60076020525f9081526040902080546105af906115cb565b600b6020525f9081526040902080546105af906115cb565b33610ca05760405163d92e233d60e01b815260040160405180910390fd5b5f819003610cc157604051634f42be3d60e01b815260040160405180910390fd5b335f9081526008602052604090205460ff1615610cf3576040516345ed80e960e01b8152336004820152602401610664565b335f908152600760205260409020610d0c82848361174a565b50335f8181526008602052604090819020805460ff19166001179055517fb3ec32f104accdf61583b5b94e7b80414c5dc5845ffc42e00f5f19775a358a0a90610d58908590859061185e565b60405180910390a25050565b6001600160a01b0381165f908152600760205260409020805460609190610bcf906115cb565b610d9261128e565b5f548210610db6576040516358a42e2360e11b815260048101839052602401610664565b5f82815260036020908152604091829020825160c08101845281546001600160a01b039081168252600183015416928101929092526002810180549293919291840191610e02906115cb565b80601f0160208091040260200160405190810160405280929190818152602001828054610e2e906115cb565b8015610e795780601f10610e5057610100808354040283529160200191610e79565b820191905f5260205f20905b815481529060010190602001808311610e5c57829003601f168201915b5050505050815260200160038201548152602001600482015481526020016005820154815250509050919050565b5f5f610eb16112d1565b831580610ec057506001548410155b15610ee1576040516320a5b2c960e01b815260048101859052602401610664565b5f848152600460205260408120600a810154600b82015460ff90911695509350905b8460ff1681101561102c5760035f8383600a8110610f2357610f23611804565b0154815260208082019290925260409081015f20815160c08101835281546001600160a01b039081168252600183015416938101939093526002810180549192840191610f6f906115cb565b80601f0160208091040260200160405190810160405280929190818152602001828054610f9b906115cb565b8015610fe65780601f10610fbd57610100808354040283529160200191610fe6565b820191905f5260205f20905b815481529060010190602001808311610fc957829003601f168201915b5050505050815260200160038201548152602001600482015481526020016005820154815250508382600a811061101f5761101f611804565b6020020152600101610f03565b50509193909250565b5f5f83838080601f0160208091040260200160405190810160405280939291908181526020018383808284375f92019190915250508251929350506003909110905080611083575060208151115b156110a157604051630a1de65160e31b815260040160405180910390fd5b5f815167ffffffffffffffff8111156110bc576110bc61162f565b6040519080825280601f01601f1916602001820160405280156110e6576020820181803683370190505b5090505f5b825181101561125e575f83828151811061110757611107611804565b01602001516001600160f81b0319169050604160f81b811080159061113a5750602d60f91b6001600160f81b0319821611155b1561117e5761114e60f882901c6020611879565b60f81b83838151811061116357611163611804565b60200101906001600160f81b03191690815f1a905350611255565b606160f81b6001600160f81b03198216108015906111aa5750603d60f91b6001600160f81b0319821611155b806111dc5750600360fc1b6001600160f81b03198216108015906111dc5750603960f81b6001600160f81b0319821611155b806111f45750601760f91b6001600160f81b03198216145b8061120c5750602d60f81b6001600160f81b03198216145b806112245750605f60f81b6001600160f81b03198216145b1561123c578083838151811061116357611163611804565b604051630a1de65160e31b815260040160405180910390fd5b506001016110eb565b508051602090910120949350505050565b604051806101400160405280600a906020820280368337509192915050565b6040518060c001604052805f6001600160a01b031681526020015f6001600160a01b03168152602001606081526020015f81526020015f81526020015f81525090565b604051806101400160405280600a905b6112e961128e565b8152602001906001900390816112e15790505090565b5f5f83601f84011261130f575f5ffd5b50813567ffffffffffffffff811115611326575f5ffd5b60208301915083602082850101111561133d575f5ffd5b9250929050565b5f5f60208385031215611355575f5ffd5b823567ffffffffffffffff81111561136b575f5ffd5b611377858286016112ff565b90969095509350505050565b5f60208284031215611393575f5ffd5b5035919050565b5f81518084528060208401602086015e5f602082860101526020601f19601f83011685010191505092915050565b6001600160a01b0387811682528616602082015260c0604082018190525f906113f39083018761139a565b606083019590955250608081019290925260a0909101529392505050565b602081525f611423602083018461139a565b9392505050565b610180810181855f5b600a811015611452578151835260209283019290910190600101611433565b50505060ff939093166101408201526101600152919050565b80356001600160a01b0381168114611481575f5ffd5b919050565b5f5f5f5f60608587031215611499575f5ffd5b6114a28561146b565b9350602085013567ffffffffffffffff8111156114bd575f5ffd5b6114c9878288016112ff565b9598909750949560400135949350505050565b5f602082840312156114ec575f5ffd5b6114238261146b565b60018060a01b03815116825260018060a01b0360208201511660208301525f604082015160c0604085015261152d60c085018261139a565b9050606083015160608501526080830151608085015260a083015160a08501528091505092915050565b602081525f61142360208301846114f5565b60ff84168152602081018390526060604082018190525f906101a0830190830184835b600a8110156115be57605f198685030183526115a98483516114f5565b9350602092830192919091019060010161158c565b5091979650505050505050565b600181811c908216806115df57607f821691505b6020821081036115fd57634e487b7160e01b5f52602260045260245ffd5b50919050565b634e487b7160e01b5f52601160045260245ffd5b5f6001820161162857611628611603565b5060010190565b634e487b7160e01b5f52604160045260245ffd5b601f82111561168a57805f5260205f20601f840160051c810160208510156116685750805b601f840160051c820191505b81811015611687575f8155600101611674565b50505b505050565b815167ffffffffffffffff8111156116a9576116a961162f565b6116bd816116b784546115cb565b84611643565b6020601f8211600181146116ef575f83156116d85750848201515b5f19600385901b1c1916600184901b178455611687565b5f84815260208120601f198516915b8281101561171e57878501518255602094850194600190920191016116fe565b508482101561173b57868401515f19600387901b60f8161c191681555b50505050600190811b01905550565b67ffffffffffffffff8311156117625761176261162f565b6117768361177083546115cb565b83611643565b5f601f8411600181146117a7575f85156117905750838201355b5f19600387901b1c1916600186901b178355611687565b5f83815260208120601f198716915b828110156117d657868501358255602094850194600190920191016117b6565b50868210156117f2575f1960f88860031b161c19848701351681555b505060018560011b0183555050505050565b634e487b7160e01b5f52603260045260245ffd5b5f60ff821660ff810361182d5761182d611603565b60010192915050565b81835281816020850137505f828201602090810191909152601f909101601f19169091010190565b602081525f611871602083018486611836565b949350505050565b60ff81811683821601908111156104ca576104ca61160356fea2646970667358221220ef034b5a200ab959048588fec589016170b28e26bf2e1456608d2bb0127701e564736f6c634300081c0033","opcodes":"PUSH1 0x80 PUSH1 0x40 MSTORE PUSH1 0x1 DUP1 SSTORE PUSH1 0x1 PUSH1 0x2 SSTORE CALLVALUE DUP1 ISZERO PUSH1 0x17 JUMPI PUSH0 PUSH0 REVERT JUMPDEST POP PUSH2 0x18C8 DUP1 PUSH2 0x25 PUSH0 CODECOPY PUSH0 RETURN INVALID PUSH1 0x80 PUSH1 0x40 MSTORE CALLVALUE DUP1 ISZERO PUSH2 0xF JUMPI PUSH0 PUSH0 REVERT JUMPDEST POP PUSH1 0x4 CALLDATASIZE LT PUSH2 0x1A1 JUMPI PUSH0 CALLDATALOAD PUSH1 0xE0 SHR DUP1 PUSH4 0x778F10A3 GT PUSH2 0xF3 JUMPI DUP1 PUSH4 0xA0F0438A GT PUSH2 0x93 JUMPI DUP1 PUSH4 0xC3C5A547 GT PUSH2 0x6E JUMPI DUP1 PUSH4 0xC3C5A547 EQ PUSH2 0x426 JUMPI DUP1 PUSH4 0xE07A0BAA EQ PUSH2 0x451 JUMPI DUP1 PUSH4 0xEA040C60 EQ PUSH2 0x470 JUMPI DUP1 PUSH4 0xEEFBF17E EQ PUSH2 0x498 JUMPI PUSH0 PUSH0 REVERT JUMPDEST DUP1 PUSH4 0xA0F0438A EQ PUSH2 0x3DC JUMPI DUP1 PUSH4 0xA1FB277F EQ PUSH2 0x3FE JUMPI DUP1 PUSH4 0xABA56271 EQ PUSH2 0x407 JUMPI PUSH0 PUSH0 REVERT JUMPDEST DUP1 PUSH4 0x857CDBB8 GT PUSH2 0xCE JUMPI DUP1 PUSH4 0x857CDBB8 EQ PUSH2 0x398 JUMPI DUP1 PUSH4 0x86F79EDB EQ PUSH2 0x3AB JUMPI DUP1 PUSH4 0x8803D054 EQ PUSH2 0x3CB JUMPI DUP1 PUSH4 0x8A602CE8 EQ PUSH2 0x3D3 JUMPI PUSH0 PUSH0 REVERT JUMPDEST DUP1 PUSH4 0x778F10A3 EQ PUSH2 0x36B JUMPI DUP1 PUSH4 0x7898ACEF EQ PUSH2 0x372 JUMPI DUP1 PUSH4 0x85623594 EQ PUSH2 0x385 JUMPI PUSH0 PUSH0 REVERT JUMPDEST DUP1 PUSH4 0x2FDF15D5 GT PUSH2 0x15E JUMPI DUP1 PUSH4 0x522CF1E0 GT PUSH2 0x139 JUMPI DUP1 PUSH4 0x522CF1E0 EQ PUSH2 0x2B6 JUMPI DUP1 PUSH4 0x570B0257 EQ PUSH2 0x2DE JUMPI DUP1 PUSH4 0x5C3E9CC2 EQ PUSH2 0x2F1 JUMPI DUP1 PUSH4 0x6E6D5D64 EQ PUSH2 0x339 JUMPI PUSH0 PUSH0 REVERT JUMPDEST DUP1 PUSH4 0x2FDF15D5 EQ PUSH2 0x266 JUMPI DUP1 PUSH4 0x36A94134 EQ PUSH2 0x28E JUMPI DUP1 PUSH4 0x3F4E7D25 EQ PUSH2 0x2A3 JUMPI PUSH0 PUSH0 REVERT JUMPDEST DUP1 PUSH4 0x3AA6FA9 EQ PUSH2 0x1A5 JUMPI DUP1 PUSH4 0x95A0535 EQ PUSH2 0x1C1 JUMPI DUP1 PUSH4 0xD80FEFD EQ PUSH2 0x1EC JUMPI DUP1 PUSH4 0xFB8FA1E EQ PUSH2 0x211 JUMPI DUP1 PUSH4 0x137A3C96 EQ PUSH2 0x231 JUMPI DUP1 PUSH4 0x2C4AC770 EQ PUSH2 0x253 JUMPI JUMPDEST PUSH0 PUSH0 REVERT JUMPDEST PUSH2 0x1AE PUSH1 0x2 SLOAD DUP2 JUMP JUMPDEST PUSH1 0x40 MLOAD SWAP1 DUP2 MSTORE PUSH1 0x20 ADD JUMPDEST PUSH1 0x40 MLOAD DUP1 SWAP2 SUB SWAP1 RETURN JUMPDEST PUSH2 0x1D4 PUSH2 0x1CF CALLDATASIZE PUSH1 0x4 PUSH2 0x1344 JUMP JUMPDEST PUSH2 0x4A0 JUMP JUMPDEST PUSH1 0x40 MLOAD PUSH1 0x1 PUSH1 0x1 PUSH1 0xA0 SHL SUB SWAP1 SWAP2 AND DUP2 MSTORE PUSH1 0x20 ADD PUSH2 0x1B8 JUMP JUMPDEST PUSH2 0x1FF PUSH2 0x1FA CALLDATASIZE PUSH1 0x4 PUSH2 0x1383 JUMP JUMPDEST PUSH2 0x4D0 JUMP JUMPDEST PUSH1 0x40 MLOAD PUSH2 0x1B8 SWAP7 SWAP6 SWAP5 SWAP4 SWAP3 SWAP2 SWAP1 PUSH2 0x13C8 JUMP JUMPDEST PUSH2 0x224 PUSH2 0x21F CALLDATASIZE PUSH1 0x4 PUSH2 0x1383 JUMP JUMPDEST PUSH2 0x597 JUMP JUMPDEST PUSH1 0x40 MLOAD PUSH2 0x1B8 SWAP2 SWAP1 PUSH2 0x1411 JUMP JUMPDEST PUSH2 0x244 PUSH2 0x23F CALLDATASIZE PUSH1 0x4 PUSH2 0x1383 JUMP JUMPDEST PUSH2 0x62E JUMP JUMPDEST PUSH1 0x40 MLOAD PUSH2 0x1B8 SWAP4 SWAP3 SWAP2 SWAP1 PUSH2 0x142A JUMP JUMPDEST PUSH2 0x1AE PUSH2 0x261 CALLDATASIZE PUSH1 0x4 PUSH2 0x1486 JUMP JUMPDEST PUSH2 0x6CC JUMP JUMPDEST PUSH2 0x1D4 PUSH2 0x274 CALLDATASIZE PUSH1 0x4 PUSH2 0x1383 JUMP JUMPDEST PUSH1 0x9 PUSH1 0x20 MSTORE PUSH0 SWAP1 DUP2 MSTORE PUSH1 0x40 SWAP1 KECCAK256 SLOAD PUSH1 0x1 PUSH1 0x1 PUSH1 0xA0 SHL SUB AND DUP2 JUMP JUMPDEST PUSH2 0x2A1 PUSH2 0x29C CALLDATASIZE PUSH1 0x4 PUSH2 0x1344 JUMP JUMPDEST PUSH2 0xA84 JUMP JUMPDEST STOP JUMPDEST PUSH2 0x224 PUSH2 0x2B1 CALLDATASIZE PUSH1 0x4 PUSH2 0x1383 JUMP JUMPDEST PUSH2 0xBB3 JUMP JUMPDEST PUSH2 0x1AE PUSH2 0x2C4 CALLDATASIZE PUSH1 0x4 PUSH2 0x14DC JUMP JUMPDEST PUSH1 0x1 PUSH1 0x1 PUSH1 0xA0 SHL SUB AND PUSH0 SWAP1 DUP2 MSTORE PUSH1 0xA PUSH1 0x20 MSTORE PUSH1 0x40 SWAP1 KECCAK256 SLOAD SWAP1 JUMP JUMPDEST PUSH2 0x224 PUSH2 0x2EC CALLDATASIZE PUSH1 0x4 PUSH2 0x14DC JUMP JUMPDEST PUSH2 0xC52 JUMP JUMPDEST PUSH2 0x320 PUSH2 0x2FF CALLDATASIZE PUSH1 0x4 PUSH2 0x1383 JUMP JUMPDEST PUSH1 0x4 PUSH1 0x20 MSTORE PUSH0 SWAP1 DUP2 MSTORE PUSH1 0x40 SWAP1 KECCAK256 PUSH1 0xA DUP2 ADD SLOAD PUSH1 0xB SWAP1 SWAP2 ADD SLOAD PUSH1 0xFF SWAP1 SWAP2 AND SWAP1 DUP3 JUMP JUMPDEST PUSH1 0x40 DUP1 MLOAD PUSH1 0xFF SWAP1 SWAP4 AND DUP4 MSTORE PUSH1 0x20 DUP4 ADD SWAP2 SWAP1 SWAP2 MSTORE ADD PUSH2 0x1B8 JUMP JUMPDEST PUSH2 0x35B PUSH2 0x347 CALLDATASIZE PUSH1 0x4 PUSH2 0x14DC JUMP JUMPDEST PUSH1 0x8 PUSH1 0x20 MSTORE PUSH0 SWAP1 DUP2 MSTORE PUSH1 0x40 SWAP1 KECCAK256 SLOAD PUSH1 0xFF AND DUP2 JUMP JUMPDEST PUSH1 0x40 MLOAD SWAP1 ISZERO ISZERO DUP2 MSTORE PUSH1 0x20 ADD PUSH2 0x1B8 JUMP JUMPDEST PUSH2 0x1AE PUSH0 DUP2 JUMP JUMPDEST PUSH2 0x224 PUSH2 0x380 CALLDATASIZE PUSH1 0x4 PUSH2 0x14DC JUMP JUMPDEST PUSH2 0xC6A JUMP JUMPDEST PUSH2 0x2A1 PUSH2 0x393 CALLDATASIZE PUSH1 0x4 PUSH2 0x1344 JUMP JUMPDEST PUSH2 0xC82 JUMP JUMPDEST PUSH2 0x224 PUSH2 0x3A6 CALLDATASIZE PUSH1 0x4 PUSH2 0x14DC JUMP JUMPDEST PUSH2 0xD64 JUMP JUMPDEST PUSH2 0x3BE PUSH2 0x3B9 CALLDATASIZE PUSH1 0x4 PUSH2 0x1383 JUMP JUMPDEST PUSH2 0xD8A JUMP JUMPDEST PUSH1 0x40 MLOAD PUSH2 0x1B8 SWAP2 SWAP1 PUSH2 0x1557 JUMP JUMPDEST PUSH2 0x1AE PUSH1 0xA DUP2 JUMP JUMPDEST PUSH2 0x1AE PUSH2 0x100 DUP2 JUMP JUMPDEST PUSH2 0x3EF PUSH2 0x3EA CALLDATASIZE PUSH1 0x4 PUSH2 0x1383 JUMP JUMPDEST PUSH2 0xEA7 JUMP JUMPDEST PUSH1 0x40 MLOAD PUSH2 0x1B8 SWAP4 SWAP3 SWAP2 SWAP1 PUSH2 0x1569 JUMP JUMPDEST PUSH2 0x1AE PUSH1 0x1 SLOAD DUP2 JUMP JUMPDEST PUSH2 0x1AE PUSH2 0x415 CALLDATASIZE PUSH1 0x4 PUSH2 0x14DC JUMP JUMPDEST PUSH1 0x6 PUSH1 0x20 MSTORE PUSH0 SWAP1 DUP2 MSTORE PUSH1 0x40 SWAP1 KECCAK256 SLOAD DUP2 JUMP JUMPDEST PUSH2 0x35B PUSH2 0x434 CALLDATASIZE PUSH1 0x4 PUSH2 0x14DC JUMP JUMPDEST PUSH1 0x1 PUSH1 0x1 PUSH1 0xA0 SHL SUB AND PUSH0 SWAP1 DUP2 MSTORE PUSH1 0x8 PUSH1 0x20 MSTORE PUSH1 0x40 SWAP1 KECCAK256 SLOAD PUSH1 0xFF AND SWAP1 JUMP JUMPDEST PUSH2 0x1AE PUSH2 0x45F CALLDATASIZE PUSH1 0x4 PUSH2 0x14DC JUMP JUMPDEST PUSH1 0xA PUSH1 0x20 MSTORE PUSH0 SWAP1 DUP2 MSTORE PUSH1 0x40 SWAP1 KECCAK256 SLOAD DUP2 JUMP JUMPDEST PUSH2 0x1AE PUSH2 0x47E CALLDATASIZE PUSH1 0x4 PUSH2 0x14DC JUMP JUMPDEST PUSH1 0x1 PUSH1 0x1 PUSH1 0xA0 SHL SUB AND PUSH0 SWAP1 DUP2 MSTORE PUSH1 0x6 PUSH1 0x20 MSTORE PUSH1 0x40 SWAP1 KECCAK256 SLOAD SWAP1 JUMP JUMPDEST PUSH2 0x1AE PUSH0 SLOAD DUP2 JUMP JUMPDEST PUSH0 PUSH1 0x9 PUSH0 PUSH2 0x4AE DUP6 DUP6 PUSH2 0x1035 JUMP JUMPDEST DUP2 MSTORE PUSH1 0x20 DUP2 ADD SWAP2 SWAP1 SWAP2 MSTORE PUSH1 0x40 ADD PUSH0 KECCAK256 SLOAD PUSH1 0x1 PUSH1 0x1 PUSH1 0xA0 SHL SUB AND SWAP1 POP JUMPDEST SWAP3 SWAP2 POP POP JUMP JUMPDEST PUSH1 0x3 PUSH1 0x20 MSTORE PUSH0 SWAP1 DUP2 MSTORE PUSH1 0x40 SWAP1 KECCAK256 DUP1 SLOAD PUSH1 0x1 DUP3 ADD SLOAD PUSH1 0x2 DUP4 ADD DUP1 SLOAD PUSH1 0x1 PUSH1 0x1 PUSH1 0xA0 SHL SUB SWAP4 DUP5 AND SWAP5 SWAP3 SWAP1 SWAP4 AND SWAP3 PUSH2 0x504 SWAP1 PUSH2 0x15CB JUMP JUMPDEST DUP1 PUSH1 0x1F ADD PUSH1 0x20 DUP1 SWAP2 DIV MUL PUSH1 0x20 ADD PUSH1 0x40 MLOAD SWAP1 DUP2 ADD PUSH1 0x40 MSTORE DUP1 SWAP3 SWAP2 SWAP1 DUP2 DUP2 MSTORE PUSH1 0x20 ADD DUP3 DUP1 SLOAD PUSH2 0x530 SWAP1 PUSH2 0x15CB JUMP JUMPDEST DUP1 ISZERO PUSH2 0x57B JUMPI DUP1 PUSH1 0x1F LT PUSH2 0x552 JUMPI PUSH2 0x100 DUP1 DUP4 SLOAD DIV MUL DUP4 MSTORE SWAP2 PUSH1 0x20 ADD SWAP2 PUSH2 0x57B JUMP JUMPDEST DUP3 ADD SWAP2 SWAP1 PUSH0 MSTORE PUSH1 0x20 PUSH0 KECCAK256 SWAP1 JUMPDEST DUP2 SLOAD DUP2 MSTORE SWAP1 PUSH1 0x1 ADD SWAP1 PUSH1 0x20 ADD DUP1 DUP4 GT PUSH2 0x55E JUMPI DUP3 SWAP1 SUB PUSH1 0x1F AND DUP3 ADD SWAP2 JUMPDEST POP POP POP POP POP SWAP1 DUP1 PUSH1 0x3 ADD SLOAD SWAP1 DUP1 PUSH1 0x4 ADD SLOAD SWAP1 DUP1 PUSH1 0x5 ADD SLOAD SWAP1 POP DUP7 JUMP JUMPDEST PUSH1 0x5 PUSH1 0x20 MSTORE PUSH0 SWAP1 DUP2 MSTORE PUSH1 0x40 SWAP1 KECCAK256 DUP1 SLOAD PUSH2 0x5AF SWAP1 PUSH2 0x15CB JUMP JUMPDEST DUP1 PUSH1 0x1F ADD PUSH1 0x20 DUP1 SWAP2 DIV MUL PUSH1 0x20 ADD PUSH1 0x40 MLOAD SWAP1 DUP2 ADD PUSH1 0x40 MSTORE DUP1 SWAP3 SWAP2 SWAP1 DUP2 DUP2 MSTORE PUSH1 0x20 ADD DUP3 DUP1 SLOAD PUSH2 0x5DB SWAP1 PUSH2 0x15CB JUMP JUMPDEST DUP1 ISZERO PUSH2 0x626 JUMPI DUP1 PUSH1 0x1F LT PUSH2 0x5FD JUMPI PUSH2 0x100 DUP1 DUP4 SLOAD DIV MUL DUP4 MSTORE SWAP2 PUSH1 0x20 ADD SWAP2 PUSH2 0x626 JUMP JUMPDEST DUP3 ADD SWAP2 SWAP1 PUSH0 MSTORE PUSH1 0x20 PUSH0 KECCAK256 SWAP1 JUMPDEST DUP2 SLOAD DUP2 MSTORE SWAP1 PUSH1 0x1 ADD SWAP1 PUSH1 0x20 ADD DUP1 DUP4 GT PUSH2 0x609 JUMPI DUP3 SWAP1 SUB PUSH1 0x1F AND DUP3 ADD SWAP2 JUMPDEST POP POP POP POP POP DUP2 JUMP JUMPDEST PUSH2 0x636 PUSH2 0x126F JUMP JUMPDEST PUSH0 DUP1 DUP4 ISZERO DUP1 PUSH2 0x647 JUMPI POP PUSH1 0x1 SLOAD DUP5 LT ISZERO JUMPDEST ISZERO PUSH2 0x66D JUMPI PUSH1 0x40 MLOAD PUSH4 0x20A5B2C9 PUSH1 0xE0 SHL DUP2 MSTORE PUSH1 0x4 DUP2 ADD DUP6 SWAP1 MSTORE PUSH1 0x24 ADD JUMPDEST PUSH1 0x40 MLOAD DUP1 SWAP2 SUB SWAP1 REVERT JUMPDEST PUSH0 DUP5 DUP2 MSTORE PUSH1 0x4 PUSH1 0x20 MSTORE PUSH1 0x40 SWAP1 DUP2 SWAP1 KECCAK256 PUSH1 0xA DUP1 DUP3 ADD SLOAD PUSH1 0xB DUP4 ADD SLOAD DUP5 MLOAD PUSH2 0x140 DUP2 ADD SWAP6 DUP7 SWAP1 MSTORE SWAP4 SWAP5 DUP6 SWAP5 PUSH1 0xFF SWAP1 SWAP4 AND SWAP4 SWAP2 SWAP3 SWAP2 DUP6 SWAP2 DUP3 DUP5 JUMPDEST DUP2 SLOAD DUP2 MSTORE PUSH1 0x20 ADD SWAP1 PUSH1 0x1 ADD SWAP1 DUP1 DUP4 GT PUSH2 0x6A4 JUMPI POP POP POP POP POP SWAP3 POP SWAP4 POP SWAP4 POP SWAP4 POP POP SWAP2 SWAP4 SWAP1 SWAP3 POP JUMP JUMPDEST PUSH0 PUSH1 0x1 PUSH1 0x1 PUSH1 0xA0 SHL SUB DUP6 AND PUSH2 0x6F4 JUMPI PUSH1 0x40 MLOAD PUSH4 0xD92E233D PUSH1 0xE0 SHL DUP2 MSTORE PUSH1 0x4 ADD PUSH1 0x40 MLOAD DUP1 SWAP2 SUB SWAP1 REVERT JUMPDEST PUSH1 0x1 PUSH1 0x1 PUSH1 0xA0 SHL SUB DUP6 AND PUSH0 SWAP1 DUP2 MSTORE PUSH1 0x8 PUSH1 0x20 MSTORE PUSH1 0x40 SWAP1 KECCAK256 SLOAD PUSH1 0xFF AND PUSH2 0x737 JUMPI PUSH1 0x40 MLOAD PUSH4 0x80DC241 PUSH1 0xE0 SHL DUP2 MSTORE PUSH1 0x1 PUSH1 0x1 PUSH1 0xA0 SHL SUB DUP7 AND PUSH1 0x4 DUP3 ADD MSTORE PUSH1 0x24 ADD PUSH2 0x664 JUMP JUMPDEST PUSH0 DUP4 SWAP1 SUB PUSH2 0x758 JUMPI PUSH1 0x40 MLOAD PUSH4 0x1B7C19AF PUSH1 0xE3 SHL DUP2 MSTORE PUSH1 0x4 ADD PUSH1 0x40 MLOAD DUP1 SWAP2 SUB SWAP1 REVERT JUMPDEST PUSH0 DUP1 SLOAD SWAP1 DUP1 PUSH2 0x766 DUP4 PUSH2 0x1617 JUMP JUMPDEST SWAP1 SWAP2 SSTORE POP SWAP1 POP PUSH0 PUSH2 0x100 DUP5 GT PUSH2 0x865 JUMPI PUSH1 0x40 MLOAD DUP1 PUSH1 0xC0 ADD PUSH1 0x40 MSTORE DUP1 CALLER PUSH1 0x1 PUSH1 0x1 PUSH1 0xA0 SHL SUB AND DUP2 MSTORE PUSH1 0x20 ADD DUP8 PUSH1 0x1 PUSH1 0x1 PUSH1 0xA0 SHL SUB AND DUP2 MSTORE PUSH1 0x20 ADD DUP7 DUP7 DUP1 DUP1 PUSH1 0x1F ADD PUSH1 0x20 DUP1 SWAP2 DIV MUL PUSH1 0x20 ADD PUSH1 0x40 MLOAD SWAP1 DUP2 ADD PUSH1 0x40 MSTORE DUP1 SWAP4 SWAP3 SWAP2 SWAP1 DUP2 DUP2 MSTORE PUSH1 0x20 ADD DUP4 DUP4 DUP1 DUP3 DUP5 CALLDATACOPY PUSH0 SWAP3 ADD DUP3 SWAP1 MSTORE POP SWAP4 DUP6 MSTORE POP POP POP PUSH1 0x20 DUP1 DUP4 ADD DUP3 SWAP1 MSTORE TIMESTAMP PUSH1 0x40 DUP1 DUP6 ADD SWAP2 SWAP1 SWAP2 MSTORE PUSH1 0x60 SWAP1 SWAP4 ADD DUP8 SWAP1 MSTORE DUP6 DUP3 MSTORE PUSH1 0x3 DUP2 MSTORE SWAP1 DUP3 SWAP1 KECCAK256 DUP4 MLOAD DUP2 SLOAD PUSH1 0x1 PUSH1 0x1 PUSH1 0xA0 SHL SUB NOT SWAP1 DUP2 AND PUSH1 0x1 PUSH1 0x1 PUSH1 0xA0 SHL SUB SWAP3 DUP4 AND OR DUP4 SSTORE SWAP3 DUP6 ADD MLOAD PUSH1 0x1 DUP4 ADD DUP1 SLOAD SWAP1 SWAP5 AND SWAP2 AND OR SWAP1 SWAP2 SSTORE SWAP1 DUP3 ADD MLOAD PUSH1 0x2 DUP3 ADD SWAP1 PUSH2 0x83F SWAP1 DUP3 PUSH2 0x168F JUMP JUMPDEST POP PUSH1 0x60 DUP3 ADD MLOAD PUSH1 0x3 DUP3 ADD SSTORE PUSH1 0x80 DUP3 ADD MLOAD PUSH1 0x4 DUP3 ADD SSTORE PUSH1 0xA0 SWAP1 SWAP2 ADD MLOAD PUSH1 0x5 SWAP1 SWAP2 ADD SSTORE PUSH2 0x945 JUMP JUMPDEST PUSH1 0x2 DUP1 SLOAD SWAP1 PUSH0 PUSH2 0x874 DUP4 PUSH2 0x1617 JUMP JUMPDEST SWAP1 SWAP2 SSTORE POP PUSH0 DUP2 DUP2 MSTORE PUSH1 0x5 PUSH1 0x20 MSTORE PUSH1 0x40 SWAP1 KECCAK256 SWAP1 SWAP2 POP PUSH2 0x893 DUP6 DUP8 DUP4 PUSH2 0x174A JUMP JUMPDEST POP PUSH1 0x40 DUP1 MLOAD PUSH1 0xC0 DUP2 ADD DUP3 MSTORE CALLER DUP2 MSTORE PUSH1 0x1 PUSH1 0x1 PUSH1 0xA0 SHL SUB DUP9 DUP2 AND PUSH1 0x20 DUP1 DUP5 ADD SWAP2 DUP3 MSTORE DUP5 MLOAD DUP1 DUP3 ADD DUP7 MSTORE PUSH0 DUP1 DUP3 MSTORE DUP6 DUP8 ADD SWAP2 DUP3 MSTORE PUSH1 0x60 DUP7 ADD DUP9 SWAP1 MSTORE TIMESTAMP PUSH1 0x80 DUP8 ADD MSTORE PUSH1 0xA0 DUP7 ADD DUP11 SWAP1 MSTORE DUP9 DUP2 MSTORE PUSH1 0x3 SWAP1 SWAP3 MSTORE SWAP5 SWAP1 KECCAK256 DUP4 MLOAD DUP2 SLOAD SWAP1 DUP5 AND PUSH1 0x1 PUSH1 0x1 PUSH1 0xA0 SHL SUB NOT SWAP2 DUP3 AND OR DUP3 SSTORE SWAP2 MLOAD PUSH1 0x1 DUP3 ADD DUP1 SLOAD SWAP2 SWAP1 SWAP5 AND SWAP3 AND SWAP2 SWAP1 SWAP2 OR SWAP1 SWAP2 SSTORE SWAP2 MLOAD SWAP1 SWAP2 SWAP1 PUSH1 0x2 DUP3 ADD SWAP1 PUSH2 0x923 SWAP1 DUP3 PUSH2 0x168F JUMP JUMPDEST POP PUSH1 0x60 DUP3 ADD MLOAD PUSH1 0x3 DUP3 ADD SSTORE PUSH1 0x80 DUP3 ADD MLOAD PUSH1 0x4 DUP3 ADD SSTORE PUSH1 0xA0 SWAP1 SWAP2 ADD MLOAD PUSH1 0x5 SWAP1 SWAP2 ADD SSTORE JUMPDEST PUSH1 0x1 PUSH1 0x1 PUSH1 0xA0 SHL SUB DUP7 AND PUSH0 SWAP1 DUP2 MSTORE PUSH1 0x6 PUSH1 0x20 MSTORE PUSH1 0x40 SWAP1 KECCAK256 SLOAD DUP1 ISZERO DUP1 PUSH2 0x97D JUMPI POP PUSH0 DUP2 DUP2 MSTORE PUSH1 0x4 PUSH1 0x20 MSTORE PUSH1 0x40 SWAP1 KECCAK256 PUSH1 0xA SWAP1 DUP2 ADD SLOAD PUSH1 0xFF AND EQ JUMPDEST ISZERO PUSH2 0x9D8 JUMPI PUSH1 0x1 DUP1 SLOAD PUSH0 SWAP2 DUP3 PUSH2 0x992 DUP4 PUSH2 0x1617 JUMP JUMPDEST SWAP1 SWAP2 SSTORE POP PUSH0 DUP2 DUP2 MSTORE PUSH1 0x4 PUSH1 0x20 SWAP1 DUP2 MSTORE PUSH1 0x40 DUP1 DUP4 KECCAK256 DUP9 DUP2 SSTORE PUSH1 0xA DUP2 ADD DUP1 SLOAD PUSH1 0xFF NOT AND PUSH1 0x1 OR SWAP1 SSTORE PUSH1 0xB ADD DUP7 SWAP1 SSTORE PUSH1 0x1 PUSH1 0x1 PUSH1 0xA0 SHL SUB DUP13 AND DUP4 MSTORE PUSH1 0x6 SWAP1 SWAP2 MSTORE SWAP1 KECCAK256 SSTORE POP PUSH2 0xA32 JUMP JUMPDEST PUSH0 DUP2 DUP2 MSTORE PUSH1 0x4 PUSH1 0x20 MSTORE PUSH1 0x40 SWAP1 KECCAK256 PUSH1 0xA DUP1 DUP3 ADD SLOAD DUP6 SWAP2 DUP4 SWAP2 PUSH1 0xFF AND SWAP1 DUP2 LT PUSH2 0xA01 JUMPI PUSH2 0xA01 PUSH2 0x1804 JUMP JUMPDEST ADD SSTORE PUSH1 0xA DUP2 ADD DUP1 SLOAD PUSH1 0xFF AND SWAP1 PUSH0 PUSH2 0xA17 DUP4 PUSH2 0x1818 JUMP JUMPDEST SWAP2 SWAP1 PUSH2 0x100 EXP DUP2 SLOAD DUP2 PUSH1 0xFF MUL NOT AND SWAP1 DUP4 PUSH1 0xFF AND MUL OR SWAP1 SSTORE POP POP POP JUMPDEST PUSH1 0x40 DUP1 MLOAD TIMESTAMP DUP2 MSTORE PUSH1 0x20 DUP2 ADD DUP7 SWAP1 MSTORE PUSH1 0x1 PUSH1 0x1 PUSH1 0xA0 SHL SUB DUP10 AND SWAP2 CALLER SWAP2 DUP7 SWAP2 PUSH32 0xADF67E525D1556D0E0A61997AC1891DEC92A21BA974328AA422695A91C27B1BF SWAP2 ADD PUSH1 0x40 MLOAD DUP1 SWAP2 SUB SWAP1 LOG4 POP POP SWAP5 SWAP4 POP POP POP POP JUMP JUMPDEST CALLER PUSH0 SWAP1 DUP2 MSTORE PUSH1 0x8 PUSH1 0x20 MSTORE PUSH1 0x40 SWAP1 KECCAK256 SLOAD PUSH1 0xFF AND PUSH2 0xAB3 JUMPI PUSH1 0x40 MLOAD PUSH4 0xABA47339 PUSH1 0xE0 SHL DUP2 MSTORE PUSH1 0x4 ADD PUSH1 0x40 MLOAD DUP1 SWAP2 SUB SWAP1 REVERT JUMPDEST CALLER PUSH0 SWAP1 DUP2 MSTORE PUSH1 0xA PUSH1 0x20 MSTORE PUSH1 0x40 SWAP1 KECCAK256 SLOAD ISZERO PUSH2 0xAE2 JUMPI PUSH1 0x40 MLOAD PUSH4 0x6609E72D PUSH1 0xE0 SHL DUP2 MSTORE CALLER PUSH1 0x4 DUP3 ADD MSTORE PUSH1 0x24 ADD PUSH2 0x664 JUMP JUMPDEST PUSH0 PUSH2 0xAED DUP4 DUP4 PUSH2 0x1035 JUMP JUMPDEST PUSH0 DUP2 DUP2 MSTORE PUSH1 0x9 PUSH1 0x20 MSTORE PUSH1 0x40 SWAP1 KECCAK256 SLOAD SWAP1 SWAP2 POP PUSH1 0x1 PUSH1 0x1 PUSH1 0xA0 SHL SUB AND ISZERO PUSH2 0xB29 JUMPI DUP3 DUP3 PUSH1 0x40 MLOAD PUSH4 0x2B4E2567 PUSH1 0xE0 SHL DUP2 MSTORE PUSH1 0x4 ADD PUSH2 0x664 SWAP3 SWAP2 SWAP1 PUSH2 0x185E JUMP JUMPDEST PUSH0 DUP2 DUP2 MSTORE PUSH1 0x9 PUSH1 0x20 SWAP1 DUP2 MSTORE PUSH1 0x40 DUP1 DUP4 KECCAK256 DUP1 SLOAD PUSH1 0x1 PUSH1 0x1 PUSH1 0xA0 SHL SUB NOT AND CALLER SWAP1 DUP2 OR SWAP1 SWAP2 SSTORE DUP4 MSTORE PUSH1 0xA DUP3 MSTORE DUP1 DUP4 KECCAK256 DUP5 SWAP1 SSTORE PUSH1 0xB SWAP1 SWAP2 MSTORE SWAP1 KECCAK256 PUSH2 0xB6A DUP4 DUP6 DUP4 PUSH2 0x174A JUMP JUMPDEST POP CALLER PUSH1 0x1 PUSH1 0x1 PUSH1 0xA0 SHL SUB AND PUSH32 0x4AFE13536E3149CDDD8C9A8DF1580CD5E909FD13C41E7DFEAD2E38D1141DAD5D DUP5 DUP5 PUSH1 0x40 MLOAD PUSH2 0xBA6 SWAP3 SWAP2 SWAP1 PUSH2 0x185E JUMP JUMPDEST PUSH1 0x40 MLOAD DUP1 SWAP2 SUB SWAP1 LOG2 POP POP POP JUMP JUMPDEST PUSH0 DUP2 DUP2 MSTORE PUSH1 0x5 PUSH1 0x20 MSTORE PUSH1 0x40 SWAP1 KECCAK256 DUP1 SLOAD PUSH1 0x60 SWAP2 SWAP1 PUSH2 0xBCF SWAP1 PUSH2 0x15CB JUMP JUMPDEST DUP1 PUSH1 0x1F ADD PUSH1 0x20 DUP1 SWAP2 DIV MUL PUSH1 0x20 ADD PUSH1 0x40 MLOAD SWAP1 DUP2 ADD PUSH1 0x40 MSTORE DUP1 SWAP3 SWAP2 SWAP1 DUP2 DUP2 MSTORE PUSH1 0x20 ADD DUP3 DUP1 SLOAD PUSH2 0xBFB SWAP1 PUSH2 0x15CB JUMP JUMPDEST DUP1 ISZERO PUSH2 0xC46 JUMPI DUP1 PUSH1 0x1F LT PUSH2 0xC1D JUMPI PUSH2 0x100 DUP1 DUP4 SLOAD DIV MUL DUP4 MSTORE SWAP2 PUSH1 0x20 ADD SWAP2 PUSH2 0xC46 JUMP JUMPDEST DUP3 ADD SWAP2 SWAP1 PUSH0 MSTORE PUSH1 0x20 PUSH0 KECCAK256 SWAP1 JUMPDEST DUP2 SLOAD DUP2 MSTORE SWAP1 PUSH1 0x1 ADD SWAP1 PUSH1 0x20 ADD DUP1 DUP4 GT PUSH2 0xC29 JUMPI DUP3 SWAP1 SUB PUSH1 0x1F AND DUP3 ADD SWAP2 JUMPDEST POP POP POP POP POP SWAP1 POP SWAP2 SWAP1 POP JUMP JUMPDEST PUSH1 0x7 PUSH1 0x20 MSTORE PUSH0 SWAP1 DUP2 MSTORE PUSH1 0x40 SWAP1 KECCAK256 DUP1 SLOAD PUSH2 0x5AF SWAP1 PUSH2 0x15CB JUMP JUMPDEST PUSH1 0xB PUSH1 0x20 MSTORE PUSH0 SWAP1 DUP2 MSTORE PUSH1 0x40 SWAP1 KECCAK256 DUP1 SLOAD PUSH2 0x5AF SWAP1 PUSH2 0x15CB JUMP JUMPDEST CALLER PUSH2 0xCA0 JUMPI PUSH1 0x40 MLOAD PUSH4 0xD92E233D PUSH1 0xE0 SHL DUP2 MSTORE PUSH1 0x4 ADD PUSH1 0x40 MLOAD DUP1 SWAP2 SUB SWAP1 REVERT JUMPDEST PUSH0 DUP2 SWAP1 SUB PUSH2 0xCC1 JUMPI PUSH1 0x40 MLOAD PUSH4 0x4F42BE3D PUSH1 0xE0 SHL DUP2 MSTORE PUSH1 0x4 ADD PUSH1 0x40 MLOAD DUP1 SWAP2 SUB SWAP1 REVERT JUMPDEST CALLER PUSH0 SWAP1 DUP2 MSTORE PUSH1 0x8 PUSH1 0x20 MSTORE PUSH1 0x40 SWAP1 KECCAK256 SLOAD PUSH1 0xFF AND ISZERO PUSH2 0xCF3 JUMPI PUSH1 0x40 MLOAD PUSH4 0x45ED80E9 PUSH1 0xE0 SHL DUP2 MSTORE CALLER PUSH1 0x4 DUP3 ADD MSTORE PUSH1 0x24 ADD PUSH2 0x664 JUMP JUMPDEST CALLER PUSH0 SWAP1 DUP2 MSTORE PUSH1 0x7 PUSH1 0x20 MSTORE PUSH1 0x40 SWAP1 KECCAK256 PUSH2 0xD0C DUP3 DUP5 DUP4 PUSH2 0x174A JUMP JUMPDEST POP CALLER PUSH0 DUP2 DUP2 MSTORE PUSH1 0x8 PUSH1 0x20 MSTORE PUSH1 0x40 SWAP1 DUP2 SWAP1 KECCAK256 DUP1 SLOAD PUSH1 0xFF NOT AND PUSH1 0x1 OR SWAP1 SSTORE MLOAD PUSH32 0xB3EC32F104ACCDF61583B5B94E7B80414C5DC5845FFC42E00F5F19775A358A0A SWAP1 PUSH2 0xD58 SWAP1 DUP6 SWAP1 DUP6 SWAP1 PUSH2 0x185E JUMP JUMPDEST PUSH1 0x40 MLOAD DUP1 SWAP2 SUB SWAP1 LOG2 POP POP JUMP JUMPDEST PUSH1 0x1 PUSH1 0x1 PUSH1 0xA0 SHL SUB DUP2 AND PUSH0 SWAP1 DUP2 MSTORE PUSH1 0x7 PUSH1 0x20 MSTORE PUSH1 0x40 SWAP1 KECCAK256 DUP1 SLOAD PUSH1 0x60 SWAP2 SWAP1 PUSH2 0xBCF SWAP1 PUSH2 0x15CB JUMP JUMPDEST PUSH2 0xD92 PUSH2 0x128E JUMP JUMPDEST PUSH0 SLOAD DUP3 LT PUSH2 0xDB6 JUMPI PUSH1 0x40 MLOAD PUSH4 0x58A42E23 PUSH1 0xE1 SHL DUP2 MSTORE PUSH1 0x4 DUP2 ADD DUP4 SWAP1 MSTORE PUSH1 0x24 ADD PUSH2 0x664 JUMP JUMPDEST PUSH0 DUP3 DUP2 MSTORE PUSH1 0x3 PUSH1 0x20 SWAP1 DUP2 MSTORE PUSH1 0x40 SWAP2 DUP3 SWAP1 KECCAK256 DUP3 MLOAD PUSH1 0xC0 DUP2 ADD DUP5 MSTORE DUP2 SLOAD PUSH1 0x1 PUSH1 0x1 PUSH1 0xA0 SHL SUB SWAP1 DUP2 AND DUP3 MSTORE PUSH1 0x1 DUP4 ADD SLOAD AND SWAP3 DUP2 ADD SWAP3 SWAP1 SWAP3 MSTORE PUSH1 0x2 DUP2 ADD DUP1 SLOAD SWAP3 SWAP4 SWAP2 SWAP3 SWAP2 DUP5 ADD SWAP2 PUSH2 0xE02 SWAP1 PUSH2 0x15CB JUMP JUMPDEST DUP1 PUSH1 0x1F ADD PUSH1 0x20 DUP1 SWAP2 DIV MUL PUSH1 0x20 ADD PUSH1 0x40 MLOAD SWAP1 DUP2 ADD PUSH1 0x40 MSTORE DUP1 SWAP3 SWAP2 SWAP1 DUP2 DUP2 MSTORE PUSH1 0x20 ADD DUP3 DUP1 SLOAD PUSH2 0xE2E SWAP1 PUSH2 0x15CB JUMP JUMPDEST DUP1 ISZERO PUSH2 0xE79 JUMPI DUP1 PUSH1 0x1F LT PUSH2 0xE50 JUMPI PUSH2 0x100 DUP1 DUP4 SLOAD DIV MUL DUP4 MSTORE SWAP2 PUSH1 0x20 ADD SWAP2 PUSH2 0xE79 JUMP JUMPDEST DUP3 ADD SWAP2 SWAP1 PUSH0 MSTORE PUSH1 0x20 PUSH0 KECCAK256 SWAP1 JUMPDEST DUP2 SLOAD DUP2 MSTORE SWAP1 PUSH1 0x1 ADD SWAP1 PUSH1 0x20 ADD DUP1 DUP4 GT PUSH2 0xE5C JUMPI DUP3 SWAP1 SUB PUSH1 0x1F AND DUP3 ADD SWAP2 JUMPDEST POP POP POP POP POP DUP2 MSTORE PUSH1 0x20 ADD PUSH1 0x3 DUP3 ADD SLOAD DUP2 MSTORE PUSH1 0x20 ADD PUSH1 0x4 DUP3 ADD SLOAD DUP2 MSTORE PUSH1 0x20 ADD PUSH1 0x5 DUP3 ADD SLOAD DUP2 MSTORE POP POP SWAP1 POP SWAP2 SWAP1 POP JUMP JUMPDEST PUSH0 PUSH0 PUSH2 0xEB1 PUSH2 0x12D1 JUMP JUMPDEST DUP4 ISZERO DUP1 PUSH2 0xEC0 JUMPI POP PUSH1 0x1 SLOAD DUP5 LT ISZERO JUMPDEST ISZERO PUSH2 0xEE1 JUMPI PUSH1 0x40 MLOAD PUSH4 0x20A5B2C9 PUSH1 0xE0 SHL DUP2 MSTORE PUSH1 0x4 DUP2 ADD DUP6 SWAP1 MSTORE PUSH1 0x24 ADD PUSH2 0x664 JUMP JUMPDEST PUSH0 DUP5 DUP2 MSTORE PUSH1 0x4 PUSH1 0x20 MSTORE PUSH1 0x40 DUP2 KECCAK256 PUSH1 0xA DUP2 ADD SLOAD PUSH1 0xB DUP3 ADD SLOAD PUSH1 0xFF SWAP1 SWAP2 AND SWAP6 POP SWAP4 POP SWAP1 JUMPDEST DUP5 PUSH1 0xFF AND DUP2 LT ISZERO PUSH2 0x102C JUMPI PUSH1 0x3 PUSH0 DUP4 DUP4 PUSH1 0xA DUP2 LT PUSH2 0xF23 JUMPI PUSH2 0xF23 PUSH2 0x1804 JUMP JUMPDEST ADD SLOAD DUP2 MSTORE PUSH1 0x20 DUP1 DUP3 ADD SWAP3 SWAP1 SWAP3 MSTORE PUSH1 0x40 SWAP1 DUP2 ADD PUSH0 KECCAK256 DUP2 MLOAD PUSH1 0xC0 DUP2 ADD DUP4 MSTORE DUP2 SLOAD PUSH1 0x1 PUSH1 0x1 PUSH1 0xA0 SHL SUB SWAP1 DUP2 AND DUP3 MSTORE PUSH1 0x1 DUP4 ADD SLOAD AND SWAP4 DUP2 ADD SWAP4 SWAP1 SWAP4 MSTORE PUSH1 0x2 DUP2 ADD DUP1 SLOAD SWAP2 SWAP3 DUP5 ADD SWAP2 PUSH2 0xF6F SWAP1 PUSH2 0x15CB JUMP JUMPDEST DUP1 PUSH1 0x1F ADD PUSH1 0x20 DUP1 SWAP2 DIV MUL PUSH1 0x20 ADD PUSH1 0x40 MLOAD SWAP1 DUP2 ADD PUSH1 0x40 MSTORE DUP1 SWAP3 SWAP2 SWAP1 DUP2 DUP2 MSTORE PUSH1 0x20 ADD DUP3 DUP1 SLOAD PUSH2 0xF9B SWAP1 PUSH2 0x15CB JUMP JUMPDEST DUP1 ISZERO PUSH2 0xFE6 JUMPI DUP1 PUSH1 0x1F LT PUSH2 0xFBD JUMPI PUSH2 0x100 DUP1 DUP4 SLOAD DIV MUL DUP4 MSTORE SWAP2 PUSH1 0x20 ADD SWAP2 PUSH2 0xFE6 JUMP JUMPDEST DUP3 ADD SWAP2 SWAP1 PUSH0 MSTORE PUSH1 0x20 PUSH0 KECCAK256 SWAP1 JUMPDEST DUP2 SLOAD DUP2 MSTORE SWAP1 PUSH1 0x1 ADD SWAP1 PUSH1 0x20 ADD DUP1 DUP4 GT PUSH2 0xFC9 JUMPI DUP3 SWAP1 SUB PUSH1 0x1F AND DUP3 ADD SWAP2 JUMPDEST POP POP POP POP POP DUP2 MSTORE PUSH1 0x20 ADD PUSH1 0x3 DUP3 ADD SLOAD DUP2 MSTORE PUSH1 0x20 ADD PUSH1 0x4 DUP3 ADD SLOAD DUP2 MSTORE PUSH1 0x20 ADD PUSH1 0x5 DUP3 ADD SLOAD DUP2 MSTORE POP POP DUP4 DUP3 PUSH1 0xA DUP2 LT PUSH2 0x101F JUMPI PUSH2 0x101F PUSH2 0x1804 JUMP JUMPDEST PUSH1 0x20 MUL ADD MSTORE PUSH1 0x1 ADD PUSH2 0xF03 JUMP JUMPDEST POP POP SWAP2 SWAP4 SWAP1 SWAP3 POP JUMP JUMPDEST PUSH0 PUSH0 DUP4 DUP4 DUP1 DUP1 PUSH1 0x1F ADD PUSH1 0x20 DUP1 SWAP2 DIV MUL PUSH1 0x20 ADD PUSH1 0x40 MLOAD SWAP1 DUP2 ADD PUSH1 0x40 MSTORE DUP1 SWAP4 SWAP3 SWAP2 SWAP1 DUP2 DUP2 MSTORE PUSH1 0x20 ADD DUP4 DUP4 DUP1 DUP3 DUP5 CALLDATACOPY PUSH0 SWAP3 ADD SWAP2 SWAP1 SWAP2 MSTORE POP POP DUP3 MLOAD SWAP3 SWAP4 POP POP PUSH1 0x3 SWAP1 SWAP2 LT SWAP1 POP DUP1 PUSH2 0x1083 JUMPI POP PUSH1 0x20 DUP2 MLOAD GT JUMPDEST ISZERO PUSH2 0x10A1 JUMPI PUSH1 0x40 MLOAD PUSH4 0xA1DE651 PUSH1 0xE3 SHL DUP2 MSTORE PUSH1 0x4 ADD PUSH1 0x40 MLOAD DUP1 SWAP2 SUB SWAP1 REVERT JUMPDEST PUSH0 DUP2 MLOAD PUSH8 0xFFFFFFFFFFFFFFFF DUP2 GT ISZERO PUSH2 0x10BC JUMPI PUSH2 0x10BC PUSH2 0x162F JUMP JUMPDEST PUSH1 0x40 MLOAD SWAP1 DUP1 DUP3 MSTORE DUP1 PUSH1 0x1F ADD PUSH1 0x1F NOT AND PUSH1 0x20 ADD DUP3 ADD PUSH1 0x40 MSTORE DUP1 ISZERO PUSH2 0x10E6 JUMPI PUSH1 0x20 DUP3 ADD DUP2 DUP1 CALLDATASIZE DUP4 CALLDATACOPY ADD SWAP1 POP JUMPDEST POP SWAP1 POP PUSH0 JUMPDEST DUP3 MLOAD DUP2 LT ISZERO PUSH2 0x125E JUMPI PUSH0 DUP4 DUP3 DUP2 MLOAD DUP2 LT PUSH2 0x1107 JUMPI PUSH2 0x1107 PUSH2 0x1804 JUMP JUMPDEST ADD PUSH1 0x20 ADD MLOAD PUSH1 0x1 PUSH1 0x1 PUSH1 0xF8 SHL SUB NOT AND SWAP1 POP PUSH1 0x41 PUSH1 0xF8 SHL DUP2 LT DUP1 ISZERO SWAP1 PUSH2 0x113A JUMPI POP PUSH1 0x2D PUSH1 0xF9 SHL PUSH1 0x1 PUSH1 0x1 PUSH1 0xF8 SHL SUB NOT DUP3 AND GT ISZERO JUMPDEST ISZERO PUSH2 0x117E JUMPI PUSH2 0x114E PUSH1 0xF8 DUP3 SWAP1 SHR PUSH1 0x20 PUSH2 0x1879 JUMP JUMPDEST PUSH1 0xF8 SHL DUP4 DUP4 DUP2 MLOAD DUP2 LT PUSH2 0x1163 JUMPI PUSH2 0x1163 PUSH2 0x1804 JUMP JUMPDEST PUSH1 0x20 ADD ADD SWAP1 PUSH1 0x1 PUSH1 0x1 PUSH1 0xF8 SHL SUB NOT AND SWAP1 DUP2 PUSH0 BYTE SWAP1 MSTORE8 POP PUSH2 0x1255 JUMP JUMPDEST PUSH1 0x61 PUSH1 0xF8 SHL PUSH1 0x1 PUSH1 0x1 PUSH1 0xF8 SHL SUB NOT DUP3 AND LT DUP1 ISZERO SWAP1 PUSH2 0x11AA JUMPI POP PUSH1 0x3D PUSH1 0xF9 SHL PUSH1 0x1 PUSH1 0x1 PUSH1 0xF8 SHL SUB NOT DUP3 AND GT ISZERO JUMPDEST DUP1 PUSH2 0x11DC JUMPI POP PUSH1 0x3 PUSH1 0xFC SHL PUSH1 0x1 PUSH1 0x1 PUSH1 0xF8 SHL SUB NOT DUP3 AND LT DUP1 ISZERO SWAP1 PUSH2 0x11DC JUMPI POP PUSH1 0x39 PUSH1 0xF8 SHL PUSH1 0x1 PUSH1 0x1 PUSH1 0xF8 SHL SUB NOT DUP3 AND GT ISZERO JUMPDEST DUP1 PUSH2 0x11F4 JUMPI POP PUSH1 0x17 PUSH1 0xF9 SHL PUSH1 0x1 PUSH1 0x1 PUSH1 0xF8 SHL SUB NOT DUP3 AND EQ JUMPDEST DUP1 PUSH2 0x120C JUMPI POP PUSH1 0x2D PUSH1 0xF8 SHL PUSH1 0x1 PUSH1 0x1 PUSH1 0xF8 SHL SUB NOT DUP3 AND EQ JUMPDEST DUP1 PUSH2 0x1224 JUMPI POP PUSH1 0x5F PUSH1 0xF8 SHL PUSH1 0x1 PUSH1 0x1 PUSH1 0xF8 SHL SUB NOT DUP3 AND EQ JUMPDEST ISZERO PUSH2 0x123C JUMPI DUP1 DUP4 DUP4 DUP2 MLOAD DUP2 LT PUSH2 0x1163 JUMPI PUSH2 0x1163 PUSH2 0x1804 JUMP JUMPDEST PUSH1 0x40 MLOAD PUSH4 0xA1DE651 PUSH1 0xE3 SHL DUP2 MSTORE PUSH1 0x4 ADD PUSH1 0x40 MLOAD DUP1 SWAP2 SUB SWAP1 REVERT JUMPDEST POP PUSH1 0x1 ADD PUSH2 0x10EB JUMP JUMPDEST POP DUP1 MLOAD PUSH1 0x20 SWAP1 SWAP2 ADD KECCAK256 SWAP5 SWAP4 POP POP POP POP JUMP JUMPDEST PUSH1 0x40 MLOAD DUP1 PUSH2 0x140 ADD PUSH1 0x40 MSTORE DUP1 PUSH1 0xA SWAP1 PUSH1 0x20 DUP3 MUL DUP1 CALLDATASIZE DUP4 CALLDATACOPY POP SWAP2 SWAP3 SWAP2 POP POP JUMP JUMPDEST PUSH1 0x40 MLOAD DUP1 PUSH1 0xC0 ADD PUSH1 0x40 MSTORE DUP1 PUSH0 PUSH1 0x1 PUSH1 0x1 PUSH1 0xA0 SHL SUB AND DUP2 MSTORE PUSH1 0x20 ADD PUSH0 PUSH1 0x1 PUSH1 0x1 PUSH1 0xA0 SHL SUB AND DUP2 MSTORE PUSH1 0x20 ADD PUSH1 0x60 DUP2 MSTORE PUSH1 0x20 ADD PUSH0 DUP2 MSTORE PUSH1 0x20 ADD PUSH0 DUP2 MSTORE PUSH1 0x20 ADD PUSH0 DUP2 MSTORE POP SWAP1 JUMP JUMPDEST PUSH1 0x40 MLOAD DUP1 PUSH2 0x140 ADD PUSH1 0x40 MSTORE DUP1 PUSH1 0xA SWAP1 JUMPDEST PUSH2 0x12E9 PUSH2 0x128E JUMP JUMPDEST DUP2 MSTORE PUSH1 0x20 ADD SWAP1 PUSH1 0x1 SWAP1 SUB SWAP1 DUP2 PUSH2 0x12E1 JUMPI SWAP1 POP POP SWAP1 JUMP JUMPDEST PUSH0 PUSH0 DUP4 PUSH1 0x1F DUP5 ADD SLT PUSH2 0x130F JUMPI PUSH0 PUSH0 REVERT JUMPDEST POP DUP2 CALLDATALOAD PUSH8 0xFFFFFFFFFFFFFFFF DUP2 GT ISZERO PUSH2 0x1326 JUMPI PUSH0 PUSH0 REVERT JUMPDEST PUSH1 0x20 DUP4 ADD SWAP2 POP DUP4 PUSH1 0x20 DUP3 DUP6 ADD ADD GT ISZERO PUSH2 0x133D JUMPI PUSH0 PUSH0 REVERT JUMPDEST SWAP3 POP SWAP3 SWAP1 POP JUMP JUMPDEST PUSH0 PUSH0 PUSH1 0x20 DUP4 DUP6 SUB SLT ISZERO PUSH2 0x1355 JUMPI PUSH0 PUSH0 REVERT JUMPDEST DUP3 CALLDATALOAD PUSH8 0xFFFFFFFFFFFFFFFF DUP2 GT ISZERO PUSH2 0x136B JUMPI PUSH0 PUSH0 REVERT JUMPDEST PUSH2 0x1377 DUP6 DUP3 DUP7 ADD PUSH2 0x12FF JUMP JUMPDEST SWAP1 SWAP7 SWAP1 SWAP6 POP SWAP4 POP POP POP POP JUMP JUMPDEST PUSH0 PUSH1 0x20 DUP3 DUP5 SUB SLT ISZERO PUSH2 0x1393 JUMPI PUSH0 PUSH0 REVERT JUMPDEST POP CALLDATALOAD SWAP2 SWAP1 POP JUMP JUMPDEST PUSH0 DUP2 MLOAD DUP1 DUP5 MSTORE DUP1 PUSH1 0x20 DUP5 ADD PUSH1 0x20 DUP7 ADD MCOPY PUSH0 PUSH1 0x20 DUP3 DUP7 ADD ADD MSTORE PUSH1 0x20 PUSH1 0x1F NOT PUSH1 0x1F DUP4 ADD AND DUP6 ADD ADD SWAP2 POP POP SWAP3 SWAP2 POP POP JUMP JUMPDEST PUSH1 0x1 PUSH1 0x1 PUSH1 0xA0 SHL SUB DUP8 DUP2 AND DUP3 MSTORE DUP7 AND PUSH1 0x20 DUP3 ADD MSTORE PUSH1 0xC0 PUSH1 0x40 DUP3 ADD DUP2 SWAP1 MSTORE PUSH0 SWAP1 PUSH2 0x13F3 SWAP1 DUP4 ADD DUP8 PUSH2 0x139A JUMP JUMPDEST PUSH1 0x60 DUP4 ADD SWAP6 SWAP1 SWAP6 MSTORE POP PUSH1 0x80 DUP2 ADD SWAP3 SWAP1 SWAP3 MSTORE PUSH1 0xA0 SWAP1 SWAP2 ADD MSTORE SWAP4 SWAP3 POP POP POP JUMP JUMPDEST PUSH1 0x20 DUP2 MSTORE PUSH0 PUSH2 0x1423 PUSH1 0x20 DUP4 ADD DUP5 PUSH2 0x139A JUMP JUMPDEST SWAP4 SWAP3 POP POP POP JUMP JUMPDEST PUSH2 0x180 DUP2 ADD DUP2 DUP6 PUSH0 JUMPDEST PUSH1 0xA DUP2 LT ISZERO PUSH2 0x1452 JUMPI DUP2 MLOAD DUP4 MSTORE PUSH1 0x20 SWAP3 DUP4 ADD SWAP3 SWAP1 SWAP2 ADD SWAP1 PUSH1 0x1 ADD PUSH2 0x1433 JUMP JUMPDEST POP POP POP PUSH1 0xFF SWAP4 SWAP1 SWAP4 AND PUSH2 0x140 DUP3 ADD MSTORE PUSH2 0x160 ADD MSTORE SWAP2 SWAP1 POP JUMP JUMPDEST DUP1 CALLDATALOAD PUSH1 0x1 PUSH1 0x1 PUSH1 0xA0 SHL SUB DUP2 AND DUP2 EQ PUSH2 0x1481 JUMPI PUSH0 PUSH0 REVERT JUMPDEST SWAP2 SWAP1 POP JUMP JUMPDEST PUSH0 PUSH0 PUSH0 PUSH0 PUSH1 0x60 DUP6 DUP8 SUB SLT ISZERO PUSH2 0x1499 JUMPI PUSH0 PUSH0 REVERT JUMPDEST PUSH2 0x14A2 DUP6 PUSH2 0x146B JUMP JUMPDEST SWAP4 POP PUSH1 0x20 DUP6 ADD CALLDATALOAD PUSH8 0xFFFFFFFFFFFFFFFF DUP2 GT ISZERO PUSH2 0x14BD JUMPI PUSH0 PUSH0 REVERT JUMPDEST PUSH2 0x14C9 DUP8 DUP3 DUP9 ADD PUSH2 0x12FF JUMP JUMPDEST SWAP6 SWAP9 SWAP1 SWAP8 POP SWAP5 SWAP6 PUSH1 0x40 ADD CALLDATALOAD SWAP5 SWAP4 POP POP POP POP JUMP JUMPDEST PUSH0 PUSH1 0x20 DUP3 DUP5 SUB SLT ISZERO PUSH2 0x14EC JUMPI PUSH0 PUSH0 REVERT JUMPDEST PUSH2 0x1423 DUP3 PUSH2 0x146B JUMP JUMPDEST PUSH1 0x1 DUP1 PUSH1 0xA0 SHL SUB DUP2 MLOAD AND DUP3 MSTORE PUSH1 0x1 DUP1 PUSH1 0xA0 SHL SUB PUSH1 0x20 DUP3 ADD MLOAD AND PUSH1 0x20 DUP4 ADD MSTORE PUSH0 PUSH1 0x40 DUP3 ADD MLOAD PUSH1 0xC0 PUSH1 0x40 DUP6 ADD MSTORE PUSH2 0x152D PUSH1 0xC0 DUP6 ADD DUP3 PUSH2 0x139A JUMP JUMPDEST SWAP1 POP PUSH1 0x60 DUP4 ADD MLOAD PUSH1 0x60 DUP6 ADD MSTORE PUSH1 0x80 DUP4 ADD MLOAD PUSH1 0x80 DUP6 ADD MSTORE PUSH1 0xA0 DUP4 ADD MLOAD PUSH1 0xA0 DUP6 ADD MSTORE DUP1 SWAP2 POP POP SWAP3 SWAP2 POP POP JUMP JUMPDEST PUSH1 0x20 DUP2 MSTORE PUSH0 PUSH2 0x1423 PUSH1 0x20 DUP4 ADD DUP5 PUSH2 0x14F5 JUMP JUMPDEST PUSH1 0xFF DUP5 AND DUP2 MSTORE PUSH1 0x20 DUP2 ADD DUP4 SWAP1 MSTORE PUSH1 0x60 PUSH1 0x40 DUP3 ADD DUP2 SWAP1 MSTORE PUSH0 SWAP1 PUSH2 0x1A0 DUP4 ADD SWAP1 DUP4 ADD DUP5 DUP4 JUMPDEST PUSH1 0xA DUP2 LT ISZERO PUSH2 0x15BE JUMPI PUSH1 0x5F NOT DUP7 DUP6 SUB ADD DUP4 MSTORE PUSH2 0x15A9 DUP5 DUP4 MLOAD PUSH2 0x14F5 JUMP JUMPDEST SWAP4 POP PUSH1 0x20 SWAP3 DUP4 ADD SWAP3 SWAP2 SWAP1 SWAP2 ADD SWAP1 PUSH1 0x1 ADD PUSH2 0x158C JUMP JUMPDEST POP SWAP2 SWAP8 SWAP7 POP POP POP POP POP POP POP JUMP JUMPDEST PUSH1 0x1 DUP2 DUP2 SHR SWAP1 DUP3 AND DUP1 PUSH2 0x15DF JUMPI PUSH1 0x7F DUP3 AND SWAP2 POP JUMPDEST PUSH1 0x20 DUP3 LT DUP2 SUB PUSH2 0x15FD JUMPI PUSH4 0x4E487B71 PUSH1 0xE0 SHL PUSH0 MSTORE PUSH1 0x22 PUSH1 0x4 MSTORE PUSH1 0x24 PUSH0 REVERT JUMPDEST POP SWAP2 SWAP1 POP JUMP JUMPDEST PUSH4 0x4E487B71 PUSH1 0xE0 SHL PUSH0 MSTORE PUSH1 0x11 PUSH1 0x4 MSTORE PUSH1 0x24 PUSH0 REVERT JUMPDEST PUSH0 PUSH1 0x1 DUP3 ADD PUSH2 0x1628 JUMPI PUSH2 0x1628 PUSH2 0x1603 JUMP JUMPDEST POP PUSH1 0x1 ADD SWAP1 JUMP JUMPDEST PUSH4 0x4E487B71 PUSH1 0xE0 SHL PUSH0 MSTORE PUSH1 0x41 PUSH1 0x4 MSTORE PUSH1 0x24 PUSH0 REVERT JUMPDEST PUSH1 0x1F DUP3 GT ISZERO PUSH2 0x168A JUMPI DUP1 PUSH0 MSTORE PUSH1 0x20 PUSH0 KECCAK256 PUSH1 0x1F DUP5 ADD PUSH1 0x5 SHR DUP2 ADD PUSH1 0x20 DUP6 LT ISZERO PUSH2 0x1668 JUMPI POP DUP1 JUMPDEST PUSH1 0x1F DUP5 ADD PUSH1 0x5 SHR DUP3 ADD SWAP2 POP JUMPDEST DUP2 DUP2 LT ISZERO PUSH2 0x1687 JUMPI PUSH0 DUP2 SSTORE PUSH1 0x1 ADD PUSH2 0x1674 JUMP JUMPDEST POP POP JUMPDEST POP POP POP JUMP JUMPDEST DUP2 MLOAD PUSH8 0xFFFFFFFFFFFFFFFF DUP2 GT ISZERO PUSH2 0x16A9 JUMPI PUSH2 0x16A9 PUSH2 0x162F JUMP JUMPDEST PUSH2 0x16BD DUP2 PUSH2 0x16B7 DUP5 SLOAD PUSH2 0x15CB JUMP JUMPDEST DUP5 PUSH2 0x1643 JUMP JUMPDEST PUSH1 0x20 PUSH1 0x1F DUP3 GT PUSH1 0x1 DUP2 EQ PUSH2 0x16EF JUMPI PUSH0 DUP4 ISZERO PUSH2 0x16D8 JUMPI POP DUP5 DUP3 ADD MLOAD JUMPDEST PUSH0 NOT PUSH1 0x3 DUP6 SWAP1 SHL SHR NOT AND PUSH1 0x1 DUP5 SWAP1 SHL OR DUP5 SSTORE PUSH2 0x1687 JUMP JUMPDEST PUSH0 DUP5 DUP2 MSTORE PUSH1 0x20 DUP2 KECCAK256 PUSH1 0x1F NOT DUP6 AND SWAP2 JUMPDEST DUP3 DUP2 LT ISZERO PUSH2 0x171E JUMPI DUP8 DUP6 ADD MLOAD DUP3 SSTORE PUSH1 0x20 SWAP5 DUP6 ADD SWAP5 PUSH1 0x1 SWAP1 SWAP3 ADD SWAP2 ADD PUSH2 0x16FE JUMP JUMPDEST POP DUP5 DUP3 LT ISZERO PUSH2 0x173B JUMPI DUP7 DUP5 ADD MLOAD PUSH0 NOT PUSH1 0x3 DUP8 SWAP1 SHL PUSH1 0xF8 AND SHR NOT AND DUP2 SSTORE JUMPDEST POP POP POP POP PUSH1 0x1 SWAP1 DUP2 SHL ADD SWAP1 SSTORE POP JUMP JUMPDEST PUSH8 0xFFFFFFFFFFFFFFFF DUP4 GT ISZERO PUSH2 0x1762 JUMPI PUSH2 0x1762 PUSH2 0x162F JUMP JUMPDEST PUSH2 0x1776 DUP4 PUSH2 0x1770 DUP4 SLOAD PUSH2 0x15CB JUMP JUMPDEST DUP4 PUSH2 0x1643 JUMP JUMPDEST PUSH0 PUSH1 0x1F DUP5 GT PUSH1 0x1 DUP2 EQ PUSH2 0x17A7 JUMPI PUSH0 DUP6 ISZERO PUSH2 0x1790 JUMPI POP DUP4 DUP3 ADD CALLDATALOAD JUMPDEST PUSH0 NOT PUSH1 0x3 DUP8 SWAP1 SHL SHR NOT AND PUSH1 0x1 DUP7 SWAP1 SHL OR DUP4 SSTORE PUSH2 0x1687 JUMP JUMPDEST PUSH0 DUP4 DUP2 MSTORE PUSH1 0x20 DUP2 KECCAK256 PUSH1 0x1F NOT DUP8 AND SWAP2 JUMPDEST DUP3 DUP2 LT ISZERO PUSH2 0x17D6 JUMPI DUP7 DUP6 ADD CALLDATALOAD DUP3 SSTORE PUSH1 0x20 SWAP5 DUP6 ADD SWAP5 PUSH1 0x1 SWAP1 SWAP3 ADD SWAP2 ADD PUSH2 0x17B6 JUMP JUMPDEST POP DUP7 DUP3 LT ISZERO PUSH2 0x17F2 JUMPI PUSH0 NOT PUSH1 0xF8 DUP9 PUSH1 0x3 SHL AND SHR NOT DUP5 DUP8 ADD CALLDATALOAD AND DUP2 SSTORE JUMPDEST POP POP PUSH1 0x1 DUP6 PUSH1 0x1 SHL ADD DUP4 SSTORE POP POP POP POP POP JUMP JUMPDEST PUSH4 0x4E487B71 PUSH1 0xE0 SHL PUSH0 MSTORE PUSH1 0x32 PUSH1 0x4 MSTORE PUSH1 0x24 PUSH0 REVERT JUMPDEST PUSH0 PUSH1 0xFF DUP3 AND PUSH1 0xFF DUP2 SUB PUSH2 0x182D JUMPI PUSH2 0x182D PUSH2 0x1603 JUMP JUMPDEST PUSH1 0x1 ADD SWAP3 SWAP2 POP POP JUMP JUMPDEST DUP2 DUP4 MSTORE DUP2 DUP2 PUSH1 0x20 DUP6 ADD CALLDATACOPY POP PUSH0 DUP3 DUP3 ADD PUSH1 0x20 SWAP1 DUP2 ADD SWAP2 SWAP1 SWAP2 MSTORE PUSH1 0x1F SWAP1 SWAP2 ADD PUSH1 0x1F NOT AND SWAP1 SWAP2 ADD ADD SWAP1 JUMP JUMPDEST PUSH1 0x20 DUP2 MSTORE PUSH0 PUSH2 0x1871 PUSH1 0x20 DUP4 ADD DUP5 DUP7 PUSH2 0x1836 JUMP JUMPDEST SWAP5 SWAP4 POP POP POP POP JUMP JUMPDEST PUSH1 0xFF DUP2 DUP2 AND DUP4 DUP3 AND ADD SWAP1 DUP2 GT ISZERO PUSH2 0x4CA JUMPI PUSH2 0x4CA PUSH2 0x1603 JUMP INVALID LOG2 PUSH5 0x6970667358 0x22 SLT KECCAK256 0xEF SUB 0x4B GAS KECCAK256 EXP 0xB9 MSIZE DIV DUP6 DUP9 INVALID 0xC5 DUP10 ADD PUSH2 0x70B2 DUP15 0x26 0xBF 0x2E EQ JUMP PUSH1 0x8D 0x2B 0xB0 SLT PUSH24 0x1E564736F6C634300081C00330000000000000000000000 "},"methodIdentifiers":{"CIPHER_TEXT_INLINE_MAX()":"8a602ce8","MESSAGES_PER_PAGE()":"8803d054","PREV_PAGE_NONE()":"778f10a3","addressToUsername(address)":"e07a0baa","encryptionPublicKeys(address)":"570b0257","getAddressForUsername(string)":"095a0535","getLargeCiphertext(uint256)":"3f4e7d25","getMessage(uint256)":"86f79edb","getPage(uint256)":"137a3c96","getPageWithMessages(uint256)":"a0f0438a","getPublicKey(address)":"857cdbb8","getRecipientHeadPageId(address)":"ea040c60","getUsernameHash(address)":"522cf1e0","hasRegisteredKey(address)":"6e6d5d64","isRegistered(address)":"c3c5a547","largeCiphertexts(uint256)":"0fb8fa1e","messages(uint256)":"0d80fefd","nextCiphertextRefId()":"03aa6fa9","nextMessageId()":"eefbf17e","nextPageId()":"a1fb277f","pages(uint256)":"5c3e9cc2","recipientHeadPageId(address)":"aba56271","registerPublicKey(bytes)":"85623594","registerUsername(string)":"36a94134","sendMessage(address,bytes,bytes32)":"2c4ac770","usernameOf(address)":"7898acef","usernameToAddress(bytes32)":"2fdf15d5"}}}}}