{
  "_format": "hh3-artifact-1",
  "contractName": "PrivateMail",
  "sourceName": "contracts/PrivateMail.sol",
  "abi": [
    {
      "inputs": [
        {
          "internalType": "address",
          "name": "owner",
          "type": "address"
        }
      ],
      "name": "AlreadyRegistered",
      "type": "error"
    },
    {
      "inputs": [],
      "name": "EmptyCiphertext",
      "type": "error"
    },
    {
      "inputs": [],
      "name": "EmptyPublicKey",
      "type": "error"
    },
    {
      "inputs": [
        {
          "internalType": "uint256",
          "name": "messageId",
          "type": "uint256"
        }
      ],
      "name": "InvalidMessageId",
      "type": "error"
    },
    {
      "inputs": [
        {
          "internalType": "uint256",
          "name": "pageId",
          "type": "uint256"
        }
      ],
      "name": "InvalidPageId",
      "type": "error"
    },
    {
      "inputs": [],
      "name": "InvalidUsername",
      "type": "error"
    },
    {
      "inputs": [],
      "name": "NotRegistered",
      "type": "error"
    },
    {
      "inputs": [
        {
          "internalType": "address",
          "name": "recipient",
          "type": "address"
        }
      ],
      "name": "RecipientNotRegistered",
      "type": "error"
    },
    {
      "inputs": [
        {
          "internalType": "address",
          "name": "owner",
          "type": "address"
        }
      ],
      "name": "UsernameAlreadySet",
      "type": "error"
    },
    {
      "inputs": [
        {
          "internalType": "string",
          "name": "username",
          "type": "string"
        }
      ],
      "name": "UsernameTaken",
      "type": "error"
    },
    {
      "inputs": [],
      "name": "ZeroAddress",
      "type": "error"
    },
    {
      "anonymous": false,
      "inputs": [
        {
          "indexed": true,
          "internalType": "uint256",
          "name": "messageId",
          "type": "uint256"
        },
        {
          "indexed": true,
          "internalType": "address",
          "name": "sender",
          "type": "address"
        },
        {
          "indexed": true,
          "internalType": "address",
          "name": "recipient",
          "type": "address"
        },
        {
          "indexed": false,
          "internalType": "uint256",
          "name": "timestamp",
          "type": "uint256"
        },
        {
          "indexed": false,
          "internalType": "bytes32",
          "name": "contentHash",
          "type": "bytes32"
        }
      ],
      "name": "MessageSent",
      "type": "event"
    },
    {
      "anonymous": false,
      "inputs": [
        {
          "indexed": true,
          "internalType": "address",
          "name": "owner",
          "type": "address"
        },
        {
          "indexed": false,
          "internalType": "bytes",
          "name": "pubKey",
          "type": "bytes"
        }
      ],
      "name": "PublicKeyRegistered",
      "type": "event"
    },
    {
      "anonymous": false,
      "inputs": [
        {
          "indexed": true,
          "internalType": "address",
          "name": "owner",
          "type": "address"
        },
        {
          "indexed": false,
          "internalType": "string",
          "name": "username",
          "type": "string"
        }
      ],
      "name": "UsernameRegistered",
      "type": "event"
    },
    {
      "inputs": [],
      "name": "CIPHER_TEXT_INLINE_MAX",
      "outputs": [
        {
          "internalType": "uint256",
          "name": "",
          "type": "uint256"
        }
      ],
      "stateMutability": "view",
      "type": "function"
    },
    {
      "inputs": [],
      "name": "MESSAGES_PER_PAGE",
      "outputs": [
        {
          "internalType": "uint256",
          "name": "",
          "type": "uint256"
        }
      ],
      "stateMutability": "view",
      "type": "function"
    },
    {
      "inputs": [],
      "name": "PREV_PAGE_NONE",
      "outputs": [
        {
          "internalType": "uint256",
          "name": "",
          "type": "uint256"
        }
      ],
      "stateMutability": "view",
      "type": "function"
    },
    {
      "inputs": [
        {
          "internalType": "address",
          "name": "",
          "type": "address"
        }
      ],
      "name": "addressToUsername",
      "outputs": [
        {
          "internalType": "bytes32",
          "name": "",
          "type": "bytes32"
        }
      ],
      "stateMutability": "view",
      "type": "function"
    },
    {
      "inputs": [
        {
          "internalType": "address",
          "name": "",
          "type": "address"
        }
      ],
      "name": "encryptionPublicKeys",
      "outputs": [
        {
          "internalType": "bytes",
          "name": "",
          "type": "bytes"
        }
      ],
      "stateMutability": "view",
      "type": "function"
    },
    {
      "inputs": [
        {
          "internalType": "string",
          "name": "username",
          "type": "string"
        }
      ],
      "name": "getAddressForUsername",
      "outputs": [
        {
          "internalType": "address",
          "name": "",
          "type": "address"
        }
      ],
      "stateMutability": "view",
      "type": "function"
    },
    {
      "inputs": [
        {
          "internalType": "uint256",
          "name": "refId",
          "type": "uint256"
        }
      ],
      "name": "getLargeCiphertext",
      "outputs": [
        {
          "internalType": "bytes",
          "name": "",
          "type": "bytes"
        }
      ],
      "stateMutability": "view",
      "type": "function"
    },
    {
      "inputs": [
        {
          "internalType": "uint256",
          "name": "messageId",
          "type": "uint256"
        }
      ],
      "name": "getMessage",
      "outputs": [
        {
          "components": [
            {
              "internalType": "address",
              "name": "sender",
              "type": "address"
            },
            {
              "internalType": "address",
              "name": "recipient",
              "type": "address"
            },
            {
              "internalType": "bytes",
              "name": "ciphertext",
              "type": "bytes"
            },
            {
              "internalType": "uint256",
              "name": "ciphertextRef",
              "type": "uint256"
            },
            {
              "internalType": "uint256",
              "name": "timestamp",
              "type": "uint256"
            },
            {
              "internalType": "bytes32",
              "name": "contentHash",
              "type": "bytes32"
            }
          ],
          "internalType": "struct PrivateMail.Message",
          "name": "",
          "type": "tuple"
        }
      ],
      "stateMutability": "view",
      "type": "function"
    },
    {
      "inputs": [
        {
          "internalType": "uint256",
          "name": "pageId",
          "type": "uint256"
        }
      ],
      "name": "getPage",
      "outputs": [
        {
          "internalType": "uint256[10]",
          "name": "messageIds",
          "type": "uint256[10]"
        },
        {
          "internalType": "uint8",
          "name": "count",
          "type": "uint8"
        },
        {
          "internalType": "uint256",
          "name": "prevPageIdForRecipient",
          "type": "uint256"
        }
      ],
      "stateMutability": "view",
      "type": "function"
    },
    {
      "inputs": [
        {
          "internalType": "uint256",
          "name": "pageId",
          "type": "uint256"
        }
      ],
      "name": "getPageWithMessages",
      "outputs": [
        {
          "internalType": "uint8",
          "name": "count",
          "type": "uint8"
        },
        {
          "internalType": "uint256",
          "name": "prevPageIdForRecipient",
          "type": "uint256"
        },
        {
          "components": [
            {
              "internalType": "address",
              "name": "sender",
              "type": "address"
            },
            {
              "internalType": "address",
              "name": "recipient",
              "type": "address"
            },
            {
              "internalType": "bytes",
              "name": "ciphertext",
              "type": "bytes"
            },
            {
              "internalType": "uint256",
              "name": "ciphertextRef",
              "type": "uint256"
            },
            {
              "internalType": "uint256",
              "name": "timestamp",
              "type": "uint256"
            },
            {
              "internalType": "bytes32",
              "name": "contentHash",
              "type": "bytes32"
            }
          ],
          "internalType": "struct PrivateMail.Message[10]",
          "name": "pageMessages",
          "type": "tuple[10]"
        }
      ],
      "stateMutability": "view",
      "type": "function"
    },
    {
      "inputs": [
        {
          "internalType": "address",
          "name": "owner",
          "type": "address"
        }
      ],
      "name": "getPublicKey",
      "outputs": [
        {
          "internalType": "bytes",
          "name": "",
          "type": "bytes"
        }
      ],
      "stateMutability": "view",
      "type": "function"
    },
    {
      "inputs": [
        {
          "internalType": "address",
          "name": "recipient",
          "type": "address"
        }
      ],
      "name": "getRecipientHeadPageId",
      "outputs": [
        {
          "internalType": "uint256",
          "name": "",
          "type": "uint256"
        }
      ],
      "stateMutability": "view",
      "type": "function"
    },
    {
      "inputs": [
        {
          "internalType": "address",
          "name": "owner",
          "type": "address"
        }
      ],
      "name": "getUsernameHash",
      "outputs": [
        {
          "internalType": "bytes32",
          "name": "",
          "type": "bytes32"
        }
      ],
      "stateMutability": "view",
      "type": "function"
    },
    {
      "inputs": [
        {
          "internalType": "address",
          "name": "",
          "type": "address"
        }
      ],
      "name": "hasRegisteredKey",
      "outputs": [
        {
          "internalType": "bool",
          "name": "",
          "type": "bool"
        }
      ],
      "stateMutability": "view",
      "type": "function"
    },
    {
      "inputs": [
        {
          "internalType": "address",
          "name": "owner",
          "type": "address"
        }
      ],
      "name": "isRegistered",
      "outputs": [
        {
          "internalType": "bool",
          "name": "",
          "type": "bool"
        }
      ],
      "stateMutability": "view",
      "type": "function"
    },
    {
      "inputs": [
        {
          "internalType": "uint256",
          "name": "",
          "type": "uint256"
        }
      ],
      "name": "largeCiphertexts",
      "outputs": [
        {
          "internalType": "bytes",
          "name": "",
          "type": "bytes"
        }
      ],
      "stateMutability": "view",
      "type": "function"
    },
    {
      "inputs": [
        {
          "internalType": "uint256",
          "name": "",
          "type": "uint256"
        }
      ],
      "name": "messages",
      "outputs": [
        {
          "internalType": "address",
          "name": "sender",
          "type": "address"
        },
        {
          "internalType": "address",
          "name": "recipient",
          "type": "address"
        },
        {
          "internalType": "bytes",
          "name": "ciphertext",
          "type": "bytes"
        },
        {
          "internalType": "uint256",
          "name": "ciphertextRef",
          "type": "uint256"
        },
        {
          "internalType": "uint256",
          "name": "timestamp",
          "type": "uint256"
        },
        {
          "internalType": "bytes32",
          "name": "contentHash",
          "type": "bytes32"
        }
      ],
      "stateMutability": "view",
      "type": "function"
    },
    {
      "inputs": [],
      "name": "nextCiphertextRefId",
      "outputs": [
        {
          "internalType": "uint256",
          "name": "",
          "type": "uint256"
        }
      ],
      "stateMutability": "view",
      "type": "function"
    },
    {
      "inputs": [],
      "name": "nextMessageId",
      "outputs": [
        {
          "internalType": "uint256",
          "name": "",
          "type": "uint256"
        }
      ],
      "stateMutability": "view",
      "type": "function"
    },
    {
      "inputs": [],
      "name": "nextPageId",
      "outputs": [
        {
          "internalType": "uint256",
          "name": "",
          "type": "uint256"
        }
      ],
      "stateMutability": "view",
      "type": "function"
    },
    {
      "inputs": [
        {
          "internalType": "uint256",
          "name": "",
          "type": "uint256"
        }
      ],
      "name": "pages",
      "outputs": [
        {
          "internalType": "uint8",
          "name": "count",
          "type": "uint8"
        },
        {
          "internalType": "uint256",
          "name": "prevPageIdForRecipient",
          "type": "uint256"
        }
      ],
      "stateMutability": "view",
      "type": "function"
    },
    {
      "inputs": [
        {
          "internalType": "address",
          "name": "",
          "type": "address"
        }
      ],
      "name": "recipientHeadPageId",
      "outputs": [
        {
          "internalType": "uint256",
          "name": "",
          "type": "uint256"
        }
      ],
      "stateMutability": "view",
      "type": "function"
    },
    {
      "inputs": [
        {
          "internalType": "bytes",
          "name": "pubKey",
          "type": "bytes"
        }
      ],
      "name": "registerPublicKey",
      "outputs": [],
      "stateMutability": "nonpayable",
      "type": "function"
    },
    {
      "inputs": [
        {
          "internalType": "string",
          "name": "username",
          "type": "string"
        }
      ],
      "name": "registerUsername",
      "outputs": [],
      "stateMutability": "nonpayable",
      "type": "function"
    },
    {
      "inputs": [
        {
          "internalType": "address",
          "name": "recipient",
          "type": "address"
        },
        {
          "internalType": "bytes",
          "name": "ciphertext",
          "type": "bytes"
        },
        {
          "internalType": "bytes32",
          "name": "contentHash",
          "type": "bytes32"
        }
      ],
      "name": "sendMessage",
      "outputs": [
        {
          "internalType": "uint256",
          "name": "messageId",
          "type": "uint256"
        }
      ],
      "stateMutability": "nonpayable",
      "type": "function"
    },
    {
      "inputs": [
        {
          "internalType": "address",
          "name": "",
          "type": "address"
        }
      ],
      "name": "usernameOf",
      "outputs": [
        {
          "internalType": "string",
          "name": "",
          "type": "string"
        }
      ],
      "stateMutability": "view",
      "type": "function"
    },
    {
      "inputs": [
        {
          "internalType": "bytes32",
          "name": "",
          "type": "bytes32"
        }
      ],
      "name": "usernameToAddress",
      "outputs": [
        {
          "internalType": "address",
          "name": "",
          "type": "address"
        }
      ],
      "stateMutability": "view",
      "type": "function"
    }
  ],
  "bytecode": "0x60806040526001805560016002553480156017575f5ffd5b506118c8806100255f395ff3fe608060405234801561000f575f5ffd5b50600436106101a1575f3560e01c8063778f10a3116100f3578063a0f0438a11610093578063c3c5a5471161006e578063c3c5a54714610426578063e07a0baa14610451578063ea040c6014610470578063eefbf17e14610498575f5ffd5b8063a0f0438a146103dc578063a1fb277f146103fe578063aba5627114610407575f5ffd5b8063857cdbb8116100ce578063857cdbb81461039857806386f79edb146103ab5780638803d054146103cb5780638a602ce8146103d3575f5ffd5b8063778f10a31461036b5780637898acef146103725780638562359414610385575f5ffd5b80632fdf15d51161015e578063522cf1e011610139578063522cf1e0146102b6578063570b0257146102de5780635c3e9cc2146102f15780636e6d5d6414610339575f5ffd5b80632fdf15d51461026657806336a941341461028e5780633f4e7d25146102a3575f5ffd5b806303aa6fa9146101a5578063095a0535146101c15780630d80fefd146101ec5780630fb8fa1e14610211578063137a3c96146102315780632c4ac77014610253575b5f5ffd5b6101ae60025481565b6040519081526020015b60405180910390f35b6101d46101cf366004611344565b6104a0565b6040516001600160a01b0390911681526020016101b8565b6101ff6101fa366004611383565b6104d0565b6040516101b8969594939291906113c8565b61022461021f366004611383565b610597565b6040516101b89190611411565b61024461023f366004611383565b61062e565b6040516101b89392919061142a565b6101ae610261366004611486565b6106cc565b6101d4610274366004611383565b60096020525f90815260409020546001600160a01b031681565b6102a161029c366004611344565b610a84565b005b6102246102b1366004611383565b610bb3565b6101ae6102c43660046114dc565b6001600160a01b03165f908152600a602052604090205490565b6102246102ec3660046114dc565b610c52565b6103206102ff366004611383565b60046020525f90815260409020600a810154600b9091015460ff9091169082565b6040805160ff90931683526020830191909152016101b8565b61035b6103473660046114dc565b60086020525f908152604090205460ff1681565b60405190151581526020016101b8565b6101ae5f81565b6102246103803660046114dc565b610c6a565b6102a1610393366004611344565b610c82565b6102246103a63660046114dc565b610d64565b6103be6103b9366004611383565b610d8a565b6040516101b89190611557565b6101ae600a81565b6101ae61010081565b6103ef6103ea366004611383565b610ea7565b6040516101b893929190611569565b6101ae60015481565b6101ae6104153660046114dc565b60066020525f908152604090205481565b61035b6104343660046114dc565b6001600160a01b03165f9081526008602052604090205460ff1690565b6101ae61045f3660046114dc565b600a6020525f908152604090205481565b6101ae61047e3660046114dc565b6001600160a01b03165f9081526006602052604090205490565b6101ae5f5481565b5f60095f6104ae8585611035565b815260208101919091526040015f20546001600160a01b031690505b92915050565b60036020525f90815260409020805460018201546002830180546001600160a01b03938416949290931692610504906115cb565b80601f0160208091040260200160405190810160405280929190818152602001828054610530906115cb565b801561057b5780601f106105525761010080835404028352916020019161057b565b820191905f5260205f20905b81548152906001019060200180831161055e57829003601f168201915b5050505050908060030154908060040154908060050154905086565b60056020525f9081526040902080546105af906115cb565b80601f01602080910402602001604051908101604052809291908181526020018280546105db906115cb565b80156106265780601f106105fd57610100808354040283529160200191610626565b820191905f5260205f20905b81548152906001019060200180831161060957829003601f168201915b505050505081565b61063661126f565b5f8083158061064757506001548410155b1561066d576040516320a5b2c960e01b8152600481018590526024015b60405180910390fd5b5f8481526004602052604090819020600a80820154600b83015484516101408101958690529394859460ff90931693919291859182845b8154815260200190600101908083116106a45750505050509250935093509350509193909250565b5f6001600160a01b0385166106f45760405163d92e233d60e01b815260040160405180910390fd5b6001600160a01b0385165f9081526008602052604090205460ff166107375760405163080dc24160e01b81526001600160a01b0386166004820152602401610664565b5f83900361075857604051631b7c19af60e31b815260040160405180910390fd5b5f8054908061076683611617565b9091555090505f6101008411610865576040518060c00160405280336001600160a01b03168152602001876001600160a01b0316815260200186868080601f0160208091040260200160405190810160405280939291908181526020018383808284375f92018290525093855250505060208083018290524260408085019190915260609093018790528582526003815290829020835181546001600160a01b03199081166001600160a01b039283161783559285015160018301805490941691161790915590820151600282019061083f908261168f565b50606082015160038201556080820151600482015560a090910151600590910155610945565b60028054905f61087483611617565b909155505f81815260056020526040902090915061089385878361174a565b506040805160c0810182523381526001600160a01b038881166020808401918252845180820186525f8082528587019182526060860188905242608087015260a086018a90528881526003909252949020835181549084166001600160a01b031991821617825591516001820180549190941692169190911790915591519091906002820190610923908261168f565b50606082015160038201556080820151600482015560a0909101516005909101555b6001600160a01b0386165f9081526006602052604090205480158061097d57505f818152600460205260409020600a9081015460ff16145b156109d857600180545f918261099283611617565b909155505f818152600460209081526040808320888155600a8101805460ff19166001179055600b018690556001600160a01b038c168352600690915290205550610a32565b5f818152600460205260409020600a808201548591839160ff16908110610a0157610a01611804565b0155600a8101805460ff16905f610a1783611818565b91906101000a81548160ff021916908360ff16021790555050505b60408051428152602081018690526001600160a01b03891691339186917fadf67e525d1556d0e0a61997ac1891dec92a21ba974328aa422695a91c27b1bf910160405180910390a45050949350505050565b335f9081526008602052604090205460ff16610ab35760405163aba4733960e01b815260040160405180910390fd5b335f908152600a602052604090205415610ae257604051636609e72d60e01b8152336004820152602401610664565b5f610aed8383611035565b5f818152600960205260409020549091506001600160a01b031615610b29578282604051632b4e256760e01b815260040161066492919061185e565b5f81815260096020908152604080832080546001600160a01b031916339081179091558352600a8252808320849055600b9091529020610b6a83858361174a565b50336001600160a01b03167f4afe13536e3149cddd8c9a8df1580cd5e909fd13c41e7dfead2e38d1141dad5d8484604051610ba692919061185e565b60405180910390a2505050565b5f818152600560205260409020805460609190610bcf906115cb565b80601f0160208091040260200160405190810160405280929190818152602001828054610bfb906115cb565b8015610c465780601f10610c1d57610100808354040283529160200191610c46565b820191905f5260205f20905b815481529060010190602001808311610c2957829003601f168201915b50505050509050919050565b60076020525f9081526040902080546105af906115cb565b600b6020525f9081526040902080546105af906115cb565b33610ca05760405163d92e233d60e01b815260040160405180910390fd5b5f819003610cc157604051634f42be3d60e01b815260040160405180910390fd5b335f9081526008602052604090205460ff1615610cf3576040516345ed80e960e01b8152336004820152602401610664565b335f908152600760205260409020610d0c82848361174a565b50335f8181526008602052604090819020805460ff19166001179055517fb3ec32f104accdf61583b5b94e7b80414c5dc5845ffc42e00f5f19775a358a0a90610d58908590859061185e565b60405180910390a25050565b6001600160a01b0381165f908152600760205260409020805460609190610bcf906115cb565b610d9261128e565b5f548210610db6576040516358a42e2360e11b815260048101839052602401610664565b5f82815260036020908152604091829020825160c08101845281546001600160a01b039081168252600183015416928101929092526002810180549293919291840191610e02906115cb565b80601f0160208091040260200160405190810160405280929190818152602001828054610e2e906115cb565b8015610e795780601f10610e5057610100808354040283529160200191610e79565b820191905f5260205f20905b815481529060010190602001808311610e5c57829003601f168201915b5050505050815260200160038201548152602001600482015481526020016005820154815250509050919050565b5f5f610eb16112d1565b831580610ec057506001548410155b15610ee1576040516320a5b2c960e01b815260048101859052602401610664565b5f848152600460205260408120600a810154600b82015460ff90911695509350905b8460ff1681101561102c5760035f8383600a8110610f2357610f23611804565b0154815260208082019290925260409081015f20815160c08101835281546001600160a01b039081168252600183015416938101939093526002810180549192840191610f6f906115cb565b80601f0160208091040260200160405190810160405280929190818152602001828054610f9b906115cb565b8015610fe65780601f10610fbd57610100808354040283529160200191610fe6565b820191905f5260205f20905b815481529060010190602001808311610fc957829003601f168201915b5050505050815260200160038201548152602001600482015481526020016005820154815250508382600a811061101f5761101f611804565b6020020152600101610f03565b50509193909250565b5f5f83838080601f0160208091040260200160405190810160405280939291908181526020018383808284375f92019190915250508251929350506003909110905080611083575060208151115b156110a157604051630a1de65160e31b815260040160405180910390fd5b5f815167ffffffffffffffff8111156110bc576110bc61162f565b6040519080825280601f01601f1916602001820160405280156110e6576020820181803683370190505b5090505f5b825181101561125e575f83828151811061110757611107611804565b01602001516001600160f81b0319169050604160f81b811080159061113a5750602d60f91b6001600160f81b0319821611155b1561117e5761114e60f882901c6020611879565b60f81b83838151811061116357611163611804565b60200101906001600160f81b03191690815f1a905350611255565b606160f81b6001600160f81b03198216108015906111aa5750603d60f91b6001600160f81b0319821611155b806111dc5750600360fc1b6001600160f81b03198216108015906111dc5750603960f81b6001600160f81b0319821611155b806111f45750601760f91b6001600160f81b03198216145b8061120c5750602d60f81b6001600160f81b03198216145b806112245750605f60f81b6001600160f81b03198216145b1561123c578083838151811061116357611163611804565b604051630a1de65160e31b815260040160405180910390fd5b506001016110eb565b508051602090910120949350505050565b604051806101400160405280600a906020820280368337509192915050565b6040518060c001604052805f6001600160a01b031681526020015f6001600160a01b03168152602001606081526020015f81526020015f81526020015f81525090565b604051806101400160405280600a905b6112e961128e565b8152602001906001900390816112e15790505090565b5f5f83601f84011261130f575f5ffd5b50813567ffffffffffffffff811115611326575f5ffd5b60208301915083602082850101111561133d575f5ffd5b9250929050565b5f5f60208385031215611355575f5ffd5b823567ffffffffffffffff81111561136b575f5ffd5b611377858286016112ff565b90969095509350505050565b5f60208284031215611393575f5ffd5b5035919050565b5f81518084528060208401602086015e5f602082860101526020601f19601f83011685010191505092915050565b6001600160a01b0387811682528616602082015260c0604082018190525f906113f39083018761139a565b606083019590955250608081019290925260a0909101529392505050565b602081525f611423602083018461139a565b9392505050565b610180810181855f5b600a811015611452578151835260209283019290910190600101611433565b50505060ff939093166101408201526101600152919050565b80356001600160a01b0381168114611481575f5ffd5b919050565b5f5f5f5f60608587031215611499575f5ffd5b6114a28561146b565b9350602085013567ffffffffffffffff8111156114bd575f5ffd5b6114c9878288016112ff565b9598909750949560400135949350505050565b5f602082840312156114ec575f5ffd5b6114238261146b565b60018060a01b03815116825260018060a01b0360208201511660208301525f604082015160c0604085015261152d60c085018261139a565b9050606083015160608501526080830151608085015260a083015160a08501528091505092915050565b602081525f61142360208301846114f5565b60ff84168152602081018390526060604082018190525f906101a0830190830184835b600a8110156115be57605f198685030183526115a98483516114f5565b9350602092830192919091019060010161158c565b5091979650505050505050565b600181811c908216806115df57607f821691505b6020821081036115fd57634e487b7160e01b5f52602260045260245ffd5b50919050565b634e487b7160e01b5f52601160045260245ffd5b5f6001820161162857611628611603565b5060010190565b634e487b7160e01b5f52604160045260245ffd5b601f82111561168a57805f5260205f20601f840160051c810160208510156116685750805b601f840160051c820191505b81811015611687575f8155600101611674565b50505b505050565b815167ffffffffffffffff8111156116a9576116a961162f565b6116bd816116b784546115cb565b84611643565b6020601f8211600181146116ef575f83156116d85750848201515b5f19600385901b1c1916600184901b178455611687565b5f84815260208120601f198516915b8281101561171e57878501518255602094850194600190920191016116fe565b508482101561173b57868401515f19600387901b60f8161c191681555b50505050600190811b01905550565b67ffffffffffffffff8311156117625761176261162f565b6117768361177083546115cb565b83611643565b5f601f8411600181146117a7575f85156117905750838201355b5f19600387901b1c1916600186901b178355611687565b5f83815260208120601f198716915b828110156117d657868501358255602094850194600190920191016117b6565b50868210156117f2575f1960f88860031b161c19848701351681555b505060018560011b0183555050505050565b634e487b7160e01b5f52603260045260245ffd5b5f60ff821660ff810361182d5761182d611603565b60010192915050565b81835281816020850137505f828201602090810191909152601f909101601f19169091010190565b602081525f611871602083018486611836565b949350505050565b60ff81811683821601908111156104ca576104ca61160356fea2646970667358221220ef034b5a200ab959048588fec589016170b28e26bf2e1456608d2bb0127701e564736f6c634300081c0033",
  "linkReferences": {},
  "deployedLinkReferences": {},
  "immutableReferences": {},
  "inputSourceName": "project/contracts/PrivateMail.sol",
  "buildInfoId": "solc-0_8_28-4f40c54837f1ae46bd6cc4f1b14496ae6acf9141"
}